:10000000A4AC00204D4200006142000063420000A9
:1000100065420000654200006542000000000000EB
:100020000000000000000000000000006542000029
:100030006542000000000000F13C00006542000045
:100040006542000065420000654200006542000014
:100050006542000065420000654200006542000004
:1000600065420000654200006542000065420000F4
:1000700065420000654200006542000065420000E4
:1000800065420000654200006542000065420000D4
:1000900065420000654200006542000065420000C4
:1000A00065420000654200006542000065420000B4
:1000B00065420000654200006542000065420000A4
:1000C0006542000065420000654200006542000094
:1000D0006542000065420000654200006542000084
:1000E0006542000065420000654200006542000074
:1000F0006542000065420000654200006542000064
:100100006542000065420000654200006542000053
:100110006542000065420000654200006542000043
:100120006542000065420000654200006542000033
:100130006542000065420000654200006542000023
:100140006542000065420000654200006542000013
:100150000000000000000000654200006542000051
:10016000654200006542000000000000654200009A
:1001700065420000654200006542000065420000E3
:1001800065420000654200006542000065420000D3
:1001900065420000654200006542000065420000C3
:1001A00065420000654200006542000065420000B3
:1001B00065420000654200006542000065420000A3
:1001C0006542000065420000654200006542000093
:1001D0006542000065420000654200006542000083
:1001E0006542000065420000654200006542000073
:1001F0006542000065420000654200006542000063
:1002000040F0200070472DE9F14FB0B092460491C4
:100210000DF142013A9A2B9199464A7000200AE06A
:100220001AF8011B0498309A90470028049000F0B7
:1002300023860D98401C0D909AF8000050B1252897
:10024000EED1002100220791089209910A920B91A8
:100250000C9204E00D9800F011BE41F001011AF873
:10026000010F2028F9D023280CD02B2804D02D28CA
:1002700005D0302809D00BE041F00201EFE741F052
:100280000401ECE741F00801E9E741F01001E6E77D
:100290002A280FD1D9F8002052F8040BC9F8002001
:1002A00000280F9003D540420F9041F004010AF15D
:1002B000010A14E00F92DFF8CC3B0AE00F98984255
:1002C00005DA00EB800402EB4402303A0F920AF1A7
:1002D000010A9AF80020A2F130000A28EED39AF819
:1002E00000002E2803D04FF0FF320E9229E01AF8BA
:1002F000010F2A2809D1D9F8000050F8042BC9F8B9
:1003000000000E920AF1010A1BE02D280CBF0AF131
:10031000010A002000220E92DFF8684B0BE040B982
:100320000E9AA24205DA02EB820503EB4503303B4D
:100330000E930AF1010A9AF80030A3F130020A2A5A
:10034000EDD3ADF840100FF640309AF8001000F0F1
:10035000B3FE08B11AF8010B8DF842009DF8420077
:10036000682805D19AF8000068280CD1622106E0BF
:100370006C2804BF9AF800006C2804D171218DF814
:1003800042100AF1010A12A806901AF801BBBBF14B
:1003900025012CD01C3900F09481091F022940F25C
:1003A0009081133900F09A84093900F08A81891EFE
:1003B00000F02F85491E00F0DC84491E022940F21E
:1003C0008081091F00F0D584491F00F0EF80491E8D
:1003D00000F08484491E00F0D780C91E0CD0891E0D
:1003E00000F07C84C91E00F0798400F01DBD01225C
:1003F0000792252100F015BDD9F8000050F8044BF4
:10040000C9F80000002C059440F0AB802B99487887
:10041000002800F0A1804FF0FF340FF6404000F0BC
:100420005BFE201A40F0288500F00ABD01236A46D1
:1004300002A9304600F0E2FD002840F01D856D1E47
:10044000F4D13096079D12AF75B1309E17F8011B9D
:100450000498B0470028049000F00E850D98401CC9
:100460006D1E0D90F2D130960A9D3021002D8DF831
:1004700000100CDD309E01236A4602A9304600F0D0
:10048000BDFD002840F0F8846D1EF4D13096059F24
:10049000089D75B1309E17F8011B0498B0470028DD
:1004A000049000F0E9840D98401C6D1E0D90F2D16F
:1004B00030960B9D3021002D8DF800100CDD309E04
:1004C00001236A4602A9304600F098FD002840F05A
:1004D000D3846D1EF4D1309605980899099D47186C
:1004E00075B1309E17F8011B0498B047002804909E
:1004F00000F0C2840D98401C6D1E0D90F2D1309614
:100500000C9D3021002D8DF800100CDD309E012354
:100510006A4602A9304600F071FD002840F0AC8424
:100520006D1EF4D130969DF8400041077FF584AEF2
:100530002020002C8DF800007FF77EAE309D012337
:100540006A4602A9284600F059FD002840F094842C
:10055000641EF4D130956FE60FF61C30059000F064
:100560006FBC0E9D002D04D5204600F0D5FD04463D
:1005700007E02A46204600F0D9FD002814BF041BDE
:100580002C46089400F05CBCD9F8001051F8040B1C
:10059000C9F8001020F00004002121F0FF35CDE95A
:1005A000024512AB0593782100F02FBC2B994878B7
:1005B00020B14FF0FF340FF6742030E79DF8420071
:1005C000622860D0682817D06A283FD06C2806D0EF
:1005D000712847D074282CD07A281DD062E0D9F831
:1005E000001051F8040BC9F80010002866D14FF034
:1005F000FF340FF6502012E7D9F8001051F8040B21
:10060000C9F8001020B94FF0FF340FF6382006E784
:100610000D99018000F014BCD9F8001051F8040BBA
:10062000C9F80010002849D14FF0FF340FF614200C
:10063000F5E6D9F8001051F8040BC9F800100028AD
:100640003CD14FF0FF340FF6FC10E8E6D9F800106B
:1006500051F8040BC9F8001080B94FF0FF340FF6C1
:10066000E410DCE6D9F8001051F8040BC9F80010CA
:1006700020B94FF0FF340FF6CC10D0E60D9AD31707
:10068000C0E90023DCE3D9F8001051F8040BC9F8E5
:10069000001020B94FF0FF340FF6A810BFE60D99F7
:1006A0000170CDE3D9F8001051F8040BC9F800101F
:1006B00020B94FF0FF340FF68C10B0E60D990160B1
:1006C000BEE39DF842004C2807BFD9F80010CB1DAF
:1006D000D9F80000C31D23F00703C9F80030D3E99F
:1006E00000010833C9F80030CDE90201C80F02D07B
:1006F00007982D210AE0BDF84000810702D5079830
:100700002B2103E0C00705D50798202112AB19540F
:10071000401C079012A80799DDE9024543184BF0E9
:1007200020006128059321AE0BD00E98002802D539
:1007300006200E9005E001BF4BF020006728012144
:100740000E91DDE902014F007F1517F1010F0DD168
:1007500008030BD0ABF1610203201A2A089002D2E1
:100760000FF618110FE00FF618110CE017F1010F3A
:100770000ED109030CD1ABF1610203201A2A0890B3
:100780001CD30FF604110322184600F0FBFC57E3BC
:10079000DDE902016A4600F049FDCDE902014BF0B6
:1007A0002000612811D1059830210170821C05922A
:1007B000BBF1610F0CBF7821582102E00FF6C40194
:1007C000E1E741700798801C0790DDE9020120F005
:1007D000000231F0004308BF002A02D100250024A6
:1007E00045E14BF02008B8F1610F40F095800E987C
:1007F000002847BF21210191401C0190019F7F1CCF
:100800002046294600220023DDE9024500F046FD8E
:1008100038BF85F0004500998DF88420091F002F0E
:1008200000910DF1850034DD064620462946002260
:10083000002300F04DFD2BD21C2200F063FD044686
:100840000D4600F0FDFDFF1F002F804609DD00F082
:1008500013FE02460B462046294600F0D5FE04460C
:100860000D46F01D0721B8F1000F0CDD491E5EBFDB
:1008700008F00F0200F8012D4FEA2818F3D502E026
:10088000002200F8012D491EFAD5C61D002FCCDC30
:1008900030460DF18501401A01990DF18506054696
:1008A0008842C8BF0D46002D2FD4854206DA0DF1CF
:1008B0008500415D0829A8BF0F2000DA00202946E5
:1008C00021AA0A4400E06D1E12F80139491E834234
:1008D000F9D00F2804D10DF18500425C521C42541E
:1008E000002904D50098001D21AE6D1C0090681EE3
:1008F0000BD431180A783032D3B23A2BA4BF5A4401
:100900003A3A401E01F80129F4D50E98002840F12A
:10091000AD80691E0E91A9E00099DFF8D02647F25C
:100920009750414391FBF2F2009225F00045C2F14D
:100930000702002A04DD2046294600F033FB0BE0C5
:1009400052420020DFF8A81600F02CFB02460B46AE
:100950002046294600F0CAFE04460D46B8F1660F4F
:1009600006BF009F0A3706270E983F18142FC8BFEE
:10097000142730208DF884000DF1850000E030460A
:10098000002F35DD06462046294600F0D3FF0146FC
:100990000A4606F1080304200A26B2FBF6F606EB27
:1009A000860EA2EB4E02303203F8012C0A22B6FB6F
:1009B000F2F202EB820EA6EB4E063036401E03F832
:1009C000026DE9D1083F002F03F10806D7DD084684
:1009D00000F0C2FF02460B462046294600F014FEF6
:1009E0000022DFF8103600F0C5FF04460D46CAE7C6
:1009F0000DF18501401A0DF1850604E00099491EAC
:100A0000401E0091761C31783029F7D0B8F1660F7E
:100A100002D10099491C04E0B8F1650F0CBF012117
:100A200000210E9D4D19A842B8BF451E002D1DD4B2
:100A3000854204DA705D3428C8BF392000DC3020DC
:100A40002946721E531800E06D1E13F80149491E15
:100A50008442F9D0392802D1705C401C70540029BE
:100A600004D50098401C16466D1C0090009C28B2CE
:100A70000E9F002802DC01250FF210664BF02000CB
:100A8000662808BF641C15D067280FFA84F841D186
:100A900018F1040F44DBB84542DA9DF84000641CAD
:100AA000010703D428B2B842D8BF074620B23F1A84
:100AB00048BF00270FFA84F8B8F1000F00F3AF80A9
:100AC0000898411C0891302205990A54002F03DC34
:100AD0009DF84000010705D50898411C08912E2279
:100AE00005990A5417EB080FB8BF7C4220B2414267
:100AF000C4192AB20B919442B8BF2546059B0898A9
:100B00002DB209952A463146184400F03BFB641B80
:100B10000C94CCE0BBF1610F15D14FF0700B17E0D6
:100B200028B2B84204DA9DF840100A0758BF0746B9
:100B30007F1E48BF0027BBF1670F14BF4FF0450B66
:100B40004FF0650B04E0BBF1410F08BF4FF0500BB5
:100B50000898411C0891002F059916F8012B0A549A
:100B600003DC9DF84000010719D50898411C089145
:100B70002E2205990A54002F11DD6D1E28B28742DE
:100B8000B8BF3D460598089B2AB23146184400F08C
:100B9000F9FA08982DB228187F1B08900B97059832
:100BA00008990844B8F1000F80F800B003D42B2254
:100BB0004270821C04E02D2144464170821C644234
:100BC00000212CAB20460AE004460A2094FBF0F0FA
:100BD00000EB8005A4EB450403F8014B491C00B26F
:100BE0000028F1DC012906DC4BF02000652804BF59
:100BF000302002F8010B00292CAB08D1302002F87C
:100C0000010B06E0491E585C303002F8010B002948
:100C1000F8DC059908980844121A099247E028B2AE
:100C200021B288421BDA0598089B2AB23146184443
:100C300000F0A8FA08992DB269180891A8EB0500F0
:100C4000002F0B9003DC9DF84000020705D5059AA4
:100C50002E2050540999491C09910C9727E00598BA
:100C6000089B22B23146184400F08CFA08982D1BDC
:100C70004044002F089003DC9DF840100A0704D57B
:100C8000411C08912E2205990A5428B28742B8BF08
:100C90003D460598089B2AB206EB0801184400F06F
:100CA00071FA08982DB228187D1B08900B959DF8B5
:100CB000400000F01400102840F0C280079A089904
:100CC0000B988A18099982180C988A1882180F981C
:100CD000824280F2B580821A0A92B1E09DF8420009
:100CE000622808D068280ED06A2814D06C281FD03B
:100CF000712810D01CE0D9F8001051F8040BC9F885
:100D00000010C0B21AE0D9F8001051F8040BC9F86D
:100D1000001080B212E0D9F80000C21D22F00702D4
:100D2000C9F80020D2E900010832C9F8002006E025
:100D3000D9F8001051F8040BC9F800100021CDE9D2
:100D400002019DF8400001075AD5DDE90223002B7E
:100D500008BF002A54D04BF02000782850D10798C3
:100D600012A930220A54401C431C079301F800B01A
:100D700046E09DF84200622808D068280ED06A2814
:100D800014D06C281FD0712810D01CE0D9F80010A6
:100D900051F8040BC9F8001040B21AE0D9F800105D
:100DA00051F8040BC9F8001000B212E0D9F80000A5
:100DB000C21D22F00702C9F80020D2E90001083262
:100DC000C9F8002006E0D9F8001051F8040BC9F862
:100DD0000010C117CDE90201002902D507982D2185
:100DE0000AE0BDF84000810702D507982B2103E0F7
:100DF000C00705D50798202112AA1154401C07905E
:100E000012A8079901440591594602A800F040F83C
:100E100016E001200790D9F8000050F8041BC9F82B
:100E200000008DF848100BE001212522BBF1000FD6
:100E300007918DF8482003D0022207928DF849B01F
:100E40000F9A07980A990C9C121A0898521A0B9933
:100E5000121A0998521A121A9DF84000141B4107E1
:100E60003FF5F0AA2020002C8DF800007FF7EAAAB9
:100E7000309E2546FFF7DABA4FF0FF3031B0BDE8BB
:100E8000F08F0000CBCCCC0C686A6C747A4C0000FC
:100E90002DE9FC4707468A463C6950466F2808BF43
:100EA000082505D0FFF7ACF9782814BF0A251025CE
:100EB000D7E900013C2680468946BAF1640F18BF85
:100EC000BAF1690F05D1002903D5D8F1000869EB03
:100ED0004909B9F1000F08BFB8F1000F0CD1386B08
:100EE00050B9082D3AD197F83800010736D530228D
:100EF0003B2684F83B2031E08DF800A0404649466F
:100F00002A46EB1700F00CFE3032D0B2761E3A289B
:100F100001960EDAA255404649462A46EB1700F0E4
:100F2000FFFD80465FEA010908BFB8F1000F05D157
:100F300008E09DF800001218513AEBE7F868A11993
:100F40008842DBD3082D09D197F83800010705D571
:100F5000A05D302802D0761E3020A055C6F13C029C
:100F6000BA61A119F960386B824208DA821A3A62D2
:100F70004FF6EF70398F01403987BDE8F3870028BD
:100F80000ED597F8380000F01400102808D17B6BBC
:100F90007969386A5B1A1B1A9A1A002AC8BF3A6222
:100FA000BDE8F3872DE9D04306460F4614464FF0BF
:100FB0000008DFF8449012E0E00707D542464B46B0
:100FC0003046394600F0D6FC06460F4640464946B4
:100FD00042464B4600F0CEFC641080468946002C09
:100FE000EAD130463946BDE8D0830000A086010032
:100FF0000000F03F84D7974100002440F8B5054633
:101000000E4617461C4600205CB117F8011BB0685D
:10101000A847B06030B1F06A401CF0620020641E46
:10102000F3D1F2BD4FF0FF30F2BD00007072696E77
:1010300074665F733A20256E20646973616C6C6F0F
:10104000776564007072696E74663A20626164202C
:10105000256E20617267756D656E74007072696EC1
:1010600074665F733A206261642025732061726741
:10107000756D656E74000000000000006E616E000A
:101080004E414E00696E6600494E460030000EE04B
:1010900002684368024408305FEAC37C44BF4B44A3
:1010A0005B1E52F804CB43F804CB091FF9D150F86A
:1010B000041B0029ECD17047C9B202788A421AB1E8
:1010C0001CBF10F8012FF9E718BF00207047026815
:1010D000531C03601170704780B500B906A0054924
:1010E0000B681BB122220021984701E000F030FE7E
:1010F000222002BDA0AA0020636F6E737472616922
:101100006E742068616E646C65723A20626164205E
:101110006D6573736167650000F1010310F8011BD1
:1011200011B110F8011BFBE7C01A7047C9B2830761
:1011300006D0521E22D310F8013B9942F7D11FE08E
:10114000083A13D302F1040241EA012141EA0141C4
:1011500050F8043B121F21BF4B40A3F1013C2CEA85
:10116000030C1CF0803FF3D0C9B2001F083210F806
:10117000013B521E28BF91EA030FF8D818BF012087
:10118000401E704762B38B0708D0521E11F8013B16
:1011900000F8013B00F024808B07F6D1830740F074
:1011A000208000BF103A07D330B4B1E83810103AAD
:1011B000A0E83810F9D230BC530724BFB1E80810BA
:1011C000A0E8081044BF51F8043B40F8043BD207A4
:1011D00024BF31F8022B20F8022B44BF0B78037098
:1011E0007047121F17D35B0009D151F8043B20F858
:1011F000023B1B0C121F20F8023BF6D20BE051F809
:10120000043B00F8013B1B0A20F8023B1B0C121F99
:1012100000F8013BF3D238BF121D521E24BF11F853
:10122000013B00F8013BF8D87047000010B51446A8
:1012300000F002F8226010BDC1F30A5343B14A0026
:1012400012F5001F28D2A3F2FE32A1EB0251704723
:1012500050EA410C20D001F0004C31EA0C01B1FA07
:1012600081F204BFB0FA80F3D2180B3AB2F1200336
:101270002CBF00FA03F1914041EA0C013EBFC2F1DC
:10128000200C20FA0CF319439040524240F2FD33F7
:10129000D21A01EB035170470022704741EA030C58
:1012A00050EA4C0C52EA0C0C4FF4001C09D307D046
:1012B0001CEB410F9CBF1CEB430F8B4208BF8242CB
:1012C00070471CEB430FFBD8994208BF9042704710
:1012D00041EA030C50EA4C0C52EA0C0C4FF4001C8F
:1012E00009D307D01CEB410F9CBF1CEB430F994265
:1012F00008BF904270471CEB410FFBD88B4208BFE0
:1013000082427047124254D440F2FF7C1CEA1153CF
:101310000FD0634531D09B1863453CBF01EB0251B0
:10132000704701F0004141EA0C510020AFF300800A
:10133000704750EA410320D001F0004C91EA0C01C3
:101340001CD0B1FA81F30B3B9A420DD9D21A9940C5
:1013500051EA0C01C3F1200C20FA0CFC61449840C6
:10136000531C40F2FF7CD7E7914041EA0C01C2F1E7
:10137000200C20FA0CF3194390407047B0FA80F328
:101380001533202BE0D3202AEED3203A203B9A427B
:1013900009D9D21A00FA03F141EA0C010020531CCA
:1013A00040F2FF7CB8E700FA02F141EA0C010020AC
:1013B0007047524240F2FF7C1CEA11530DD0634546
:1013C000DBD0B2EB030C3CBFA1EB025170470CF138
:1013D000010221EA035141F4801150EA410CCCD0C2
:1013E00001F0004C352A27DC30B481EA0C01B2F15F
:1013F000200309DAC2F12003044601FA03F5D040C4
:101400002843D1409C400CE0C3F12002450020FA63
:1014100003F418BF44F0010421FA03F091400C4397
:10142000002174F1004550F1000051EB0C01244201
:1014300030BC7FF47BAF70476146002076E7000048
:10144000C1F30A5340F21E42D31A0CDDCA0283F3E1
:10145000070342EA505242F00042DA4002EBE172E6
:1014600082EAE17070476FEAE17203F2E13008B19D
:1014700082F000407047000010F0004160B148BFAA
:101480004042B0FA80F29040D21CC2F5846241EA38
:10149000025202EBD021400570470000841A71EB24
:1014A000030604D26E40001BB141121973414FF480
:1014B000001C1CEB410F34BF7CEB430683E00C0D9A
:1014C000A4EB1356362E00F37C80012E45EAC3238D
:1014D00041DC43EA525312BFD20292025B08240558
:1014E00045EAC12141EA5051D2EBC020994125D4AF
:1014F00007D1B0FA80F610FA06F162D0002020364B
:1015000008E0B1FA81F6B140C6F1200220FA02F2F9
:101510001143B0404FEAF474B4EB465434F0010682
:101520004FEA74040AD8D6F50016760D04F000448C
:10153000F04061FA06F25040F1404840C00A40EAEB
:10154000415021F0004128BF5FEA500550F10000F2
:1015500044EBD12135E0DB0A45EAC121C90AB6F1E5
:1015600020050EDD42EA0242120CC5F1200603FA04
:1015700006F6EB4042EA06056D42984161F1000132
:101580000DE062FA06F5F240554063FA06FC82EA85
:101590000C02F3405A406D42904161EB030111F49B
:1015A000801F05D1641E620502D06D004041494193
:1015B00021F48011430875F1004350F1000041EB24
:1015C000045170BC70471CEB410F15D223F000434F
:1015D00052EA43060BD04FEA4C0CBCEB410F04D847
:1015E0000C0D661E342EB7DDEBE7801A994150EAE8
:1015F000410608BF0021E4E708BF1CEB430F28BFEA
:101600006FF00001DDE7000070B491EA030F4FF0C6
:1016100000457FF543AF6B40841A71EB030603D29C
:10162000001BB141121973414FF4001C1CEB410F18
:1016300034BF7CEB430442E00C0DA4EB1356352E73
:101640004FDC45EAC323DB0A45EAC121C912B6F1E2
:1016500020050DDD63FA05F6EB4086EA030512422C
:1016600018BF45F00105C01851F100010CD213E07C
:1016700062FA06F5F2405540F3415A40B340F34058
:101680005A408018594107D349085FEA30005FEAA1
:10169000350528BF45F0010501F58011420875F1B7
:1016A000004250F1000041EB04514E0016F5001FBE
:1016B00070BC38BF70470020090D090570471CEB4E
:1016C000410F10D252EA43060BD0BCEB410F05D8B4
:1016D0000C0DAB43661E342EB6DD02E0AB43801822
:1016E000594170BC704770BC70470000F0B540F2C3
:1016F000FF7581EA030C0CF0004C15EA11541DBF74
:1017000015EA1357AC42AF42E5E0BC41C1F3130107
:10171000C3F31303801A994143F4801304D2641E67
:101720000018494180185941C90241EA5051B1FBA2
:10173000F3F603FB1611A2FB0675D7EBC020A941F7
:1017400002D2761E80185941C90241EA5051B1FBBC
:10175000F3FE03FB1E11A2FB0E75D7EBC020A941BF
:1017600003D2AEF1010E80185941890241EA90512D
:10177000760546EA8E2EB1FBF3F603FB1611A2FBAB
:101780000675D7EB8020A94102D2761E80185941F8
:10179000C90241EA50514EEA060EB1FBF3F603FBD3
:1017A0001611A2FB0675D7EBC020A94102D2761E06
:1017B00080185941C90241EA5051B1FBF3F703FBCC
:1017C0001711A2FB0735D3EBC020A94167F1000731
:1017D0000CBF004247F0010766F3D5274FEA1E31E0
:1017E000B80814F5806412DDBD0775F1004250EBB6
:1017F0000E5051EB045111F5801F5CBF41EA0C0102
:10180000F0BD4CF07F6141F0E0410020F0BDBD072C
:101810006D0840EA0E5041F48011D4F10104B4F196
:1018200020060ADAC4F120060200E04001FA06F3BD
:10183000E1401843B24015430EE0342C13DCC6F1EE
:10184000200445EA40056D0820FA06F2154321FA06
:1018500006F0A1400D43002175F1004250F1000057
:1018600051EB0C01F0BD00205FEA0C01F0BDCFB9D7
:1018700092185B41B3FA83F704BFB2FA82F6BF193C
:101880000B3FB7F120062FBF02FA06F3BB40C7F1AA
:10189000200622FA06F638BF3343BA401CB1E419D9
:1018A000641E33E77F4231F00041B1FA81F404BF96
:1018B000B0FA80F6A4190B3CB4F120062FBF00FA51
:1018C00006F1A140C4F1200620FA06F638BF3143E4
:1018D000A0403C1B1AE7AC421ABF05EA1357AF42BF
:1018E00012E050EA41061CBF52EA4306BFE750EA45
:1018F0004107304661461CBF41EA0551F0BD52EA3E
:10190000430C08BFC143F0BD00204FF4001616EB96
:10191000410F98BF16EB430F08BF16EB410F24BFD2
:10192000C14305E016EB430F0CBF61464CEA05517D
:10193000F0BD0000400D40F21E4C40EAC120BCEB5F
:10194000115C40F0004003D48CF30701C84070479D
:101950006FEAE1707047000050B1B0FA80F1884042
:10196000C91CC1F58461090501EBD0214005704710
:101970000146704730B540F2FF7C1CEA11541DBF90
:101980001CEA1355644565453FE0641981EA030C80
:101990006FF35F530CF0004C43F48013C90241F025
:1019A000004141EA505EC5021100A5FB0202002879
:1019B0004FF00000EEFB01204FF00001E3FB05219A
:1019C00018BF42F00102401800214941E3FB0E011B
:1019D000A4F580640D0302D292184041494154F1AC
:1019E000010470DD450872F1004250F1000051EB36
:1019F0000451A1F5801102D441EA0C0130BD40F23E
:101A0000FF7E4CEA0E51002030BD0CEA13556445B0
:101A100018BF654581EA030C0CF0004C41D050EA38
:101A2000410E1CBF52EA430E02E06146002030BD69
:101A300024422C441BD15FEA050EF6D0090302BFF5
:101A400001460020AEF1140EB1FA81F5AEEB0504AB
:101A500001FA05FE0C35C5F1200100FA05F5C84074
:101A60004EEA000E6FF35F5343F480139CE733F0AC
:101A70000043B3FA83F504BFB2FA82FE75440B3D0E
:101A8000641BB5F1200E2FBF02FA0EF3AB40C5F177
:101A9000200E22FA0EFE38BF43EA0E03AA40641C51
:101AA0007CE750EA410E14BF52EA430E6FF000018A
:101AB0004FF4001515EB430F8EBF194615EB410F80
:101AC0009DE7B4D830BDD4F10104B4F120050FDA9C
:101AD000C4F12005520828BF42F0010210FA05FEA9
:101AE00001FA05F57244E2BFE0402843E1400FE00F
:101AF000352C9ADCC5F1200452EA400220FA05F2A6
:101B000018BF42F0010231FA05F0A1400A4300215A
:101B100072F1004250F1000051EB0C0130BD0000A9
:101B2000BBBBE1B1B2F5803F80F07E80022A1ED9B6
:101B30008C46B1FBF2F102FB11C31B0443EA1043D4
:101B4000B3FBF2FC02FB1C3380B240EA0343B3FB5D
:101B5000F2F002FB103240EA0C4000237047022AE8
:101B600005D98446B0FBF2F002FB10C270474AB1BF
:101B700005D100F0010249085FEA300070470022F9
:101B80000023704700F0E8B80B000200002100209D
:101B90007047904271EB030CF6D3B3F5803F2FD220
:101BA000F0B5B3FA83F7B1FA81F4A7F10F0E3D1B3C
:101BB0005340CEF1200602FA0EF2F3415340B5F144
:101BC0000F0746D80F3C2C444140C4F12006A040EA
:101BD000F1414140B1FBF3F603FB1611A2FB0645B0
:101BE000001BA94102D2761E8018594180EA0102E9
:101BF00021FA0EF362FA0EF200215A403046F0BD8F
:101C000030B4B1FBF3FC03FB1C11A2FB0C45001B21
:101C1000A94103D2ACF1010C8018594130BC0246F5
:101C20000B46604600217047B2F1807F65D3F0B566
:101C3000B2FA82F7B1FA81F4C7F10F063D1B22FA1E
:101C400006F307F1110EF24120355A40B5F10F07A6
:101C5000B8D94140C4F12006A040F1414140B1FB58
:101C6000F3FC03FB1C11A2FB0C45001BA94103D292
:101C7000BCF1010C801859410F2F12D30F3FC9033B
:101C800041EA5041B1FBF3F603FB1611A2FB0645F6
:101C9000D4EBC030A94102D2761E8018594146EAE1
:101CA000CC3C07B34140C7F12006B840F141414068
:101CB000B1FBF3F603FB1611A2FB0645001BA9417D
:101CC00002D2761E8018594180EA010221FA0EF3F1
:101CD000C7F1200462FA0EF20CFA07F05A402CFA0F
:101CE00004F13043F0BD80EA010221FA0EF3002135
:101CF00062FA0EF260465A40F0BD8C46B1FBF2F13A
:101D000002FB11C31B0243EA1063B3FBF2FC02FBAC
:101D10001C331B024CEA002043EA1063B3FBF2FCC5
:101D200002FB1C331B024CEA002043EA1063B3FBA6
:101D3000F2FC02FB1C331B024CEA002043EA106356
:101D4000B3FBF2FC02FB1C324CEA0020002370477C
:101D5000012000F003B800007047000080B5AFF329
:101D60000080024A11001820ABBEFBE726000200EB
:101D700010B5DFF80833DFF808431B680FF21031A5
:101D800023401822DFF8FC42A34204BF0FF2C03107
:101D90001B22002300E05B1C934207D251F8334022
:101DA0008442F8D101EBC300406810BD002010BD93
:101DB00030B5CB4300F58064D50725684CBF0D4393
:101DC0001D40256000F58460920747BF02681143FB
:101DD00001681940016030BD30B5CB4300F5816426
:101DE000D50725684CBF0D431D40256000F2044413
:101DF000950725684CBF0D431D40256000F20C443B
:101E0000550747BF2368194321681940216000F531
:101E1000A760D10301684EBF41F0010149084900A4
:101E2000016030BD2DE9F043DFF85092DFF85082B9
:101E3000D9F80040DFF8505208EA0404AC421FD041
:101E40004FF0000C00F6C47E012404FA0CF6314277
:101E500011D04FEA4C04DEF800600327A740BE43D0
:101E6000CEF80060C2F34117DEF8006007FA04F410
:101E70003443CEF800400CF1010CBCF1080FE3DB59
:101E8000CC4300F5A066D70737684CBF41EA070E80
:101E900004EA070EC6F800E000F2045C9607DCF8DE
:101EA00000604CBF41EA060E04EA060E00F5A1668A
:101EB000CCF800E0570737684CBF41EA070E04EA48
:101EC000070EC6F800E000F5A366170737684CBF99
:101ED00041EA070E04EA070EC6F800E0D9F80060F0
:101EE00008EA0606AE4209D000F23C5CD206DCF8F5
:101EF00000204CBF0A432240CCF8002000F20C52D4
:101F0000DE0716684CBF41EA060C04EA060CC2F86C
:101F100000C000F5A2629E0716684CBF41EA060C9D
:101F200004EA060CC2F800C000F214525E071668FC
:101F30004CBF41EA060C04EA060CC2F800C000F2ED
:101F40001C521E0716684CBF41EA060C04EA060C38
:101F5000C2F800C0D9F8002008EA0202AA4210D054
:101F600000F244529D0515684CBF0D432540156095
:101F700000F5A86213F4407F156814BF0D43254097
:101F8000156000F5A560002B07BF026811430168CA
:101F900021400160BDE8F08300F582606AE000291D
:101FA0001ABF00F583600068D0F814047047C0F8C9
:101FB0001C14704738B50C46FFF7DAFE054621467B
:101FC00000F085F92846FFE7BDE8324000F0A4B9EB
:101FD00050F82100704740F821207047012221E786
:101FE00038B500F027F82946204601B0BDE830405A
:101FF0000823F3E738B504460D46082303E038B557
:1020000004460D4609230122FFF70CFF294620460E
:10201000BDE838400122CBE604460D460222C7E661
:1020200038B5FFF7F9FF2946204601B0BDE830403A
:102030000823D3E704460D460022B9E610B5134B3A
:102040000FF2E4121B68C0F30741CB40DB0746BF29
:1020500002EBC101496852F8311001F22C51020A19
:102060000B680F24944000F00F00A34390401843E6
:10207000086010BD026811430160704700E00F4026
:102080000000FF7000000A10000005106CE00F4017
:1020900000400040100000000080054010000000DB
:1020A00000500040110000000090054011000000A9
:1020B000006000401200000000A005401200000077
:1020C000007000401300000000B005401300000045
:1020D000004002401400000000C005401400000051
:1020E000005002402E00000000D005402E000000ED
:1020F000006002402F00000000E005402F000000BB
:10210000007002403000000000F005403000000088
:1021100000D00340460000000000064046000000DA
:102120000010064047000000002006404800000064
:10213000003006407F0000000040064080000000A4
:102140000050064084000000006006408C00000043
:10215000004000401000000000800540100000001A
:1021600000500040110000000090054011000000E8
:10217000006000401200000000A0054012000000B6
:10218000007000401300000000B005401300000084
:10219000004002401400000000C005401400000090
:1021A000005002402E00000000D005402E0000002C
:1021B000006002402F00000000E005402F000000FA
:1021C000007002403000000000F0054030000000C8
:1021D00000D0034043000000000006404300000020
:1021E00000100640440000000020064045000000AA
:1021F0000030064058000000004006405900000032
:10220000005006405C0000000060064064000000D2
:10221000007006406C000000008006406D00000069
:10222000009006407F000000004000400080054014
:1022300000500040009005400060004000A00540B4
:102240000070004000B005400040024000C0054062
:102250000050024000D005400060024000E0054010
:102260000070024000F0054000D00340000006402E
:1022700000100640001006400020064000200640E6
:102280000030064000300640004006400040064056
:1022900000500640005006400060064000600640C6
:1022A0000070064000700640008006400080064036
:1022B000009006400090064080B500F0EDF802E086
:1022C00080B500F0E5F800B10120C0B202BDF0B564
:1022D000394C3A4A2568954209D02568002655F8B8
:1022E000267042F82670761C9B2EF8D3226042F8A6
:1022F0002010F0BD10B50FF2D402830852F823204D
:10230000136800F00300C000FF248440A34301FAD7
:1023100000F01843106010BD0428294903D1086853
:1023200040F480300AE0052803D1086840F400300A
:1023300004E0062804D1086840F480200860704753
:102340000F2804D11F48016841F002010DE0102858
:102350000CD3A0F11002012102F01F0291400FF2F4
:1023600008121038400952F8200001607047022816
:10237000154903D1086840F000400AE00E2803D157
:10238000086840F0805004E00F2804D1086840F04D
:1023900080600860704710280CD3A0F11002012162
:1023A00002F01F0291400FF2D4021038400952F897
:1023B000200001607047000008ED00E000A8002048
:1023C00024ED00E010E000E004ED00E0000000007B
:1023D00018ED00E01CED00E020ED00E000E400E07E
:1023E00004E400E008E400E00CE400E010E400E0B5
:1023F00014E400E018E400E01CE400E020E400E065
:1024000024E400E028E400E02CE400E030E400E014
:1024100034E400E038E400E03CE400E040E400E0C4
:1024200044E400E048E400E04CE400E050E400E074
:1024300054E400E058E400E05CE400E060E400E024
:1024400064E400E068E400E06CE400E070E400E0D4
:1024500074E400E078E400E07CE400E080E400E084
:1024600084E400E088E400E000E100E004E100E052
:1024700008E100E00CE100E010E100E000E200E033
:1024800004E200E008E200E00CE200E010E200E01C
:10249000EFF3108072B67047EFF3108062B67047AA
:1024A00000210FF2B44252F83130834203D302EBE1
:1024B000C10040687047491C0629F4D300207047CA
:1024C000C0F30721DFF84C2203E0C0F30721DFF857
:1024D000482200065118800D40EA411040F0844027
:1024E000006800B10120C0B27047C0F30721DFF8D7
:1024F0002C2200065118800D40EA411040F0844023
:102500000121016070472DE9F84FDFF81422DFF850
:10251000FC31894611681940DFF8F43199424CD0FA
:1025200000F03803102BC0F384154FF4004ADFF895
:10253000F81104D188464FF0000B15252EE0302B02
:1025400004D147F230584FF4001B27E0382B03D159
:10255000D0464FF4800B21E010F0380F1BD1A5F1CD
:102560000903122B29D20FF2D41353F82580D36F0D
:1025700023F01C03072DA8BF43F01003D3674FF0CF
:102580004C7B4FF40023146DE40502D45B1EFAD19A
:1025900013E01BB911E04FF00008C34610F4605F70
:1025A000DFF88841DFF87C6140F0818010F0380F5F
:1025B0001CBF00F03801102901D00020A3E0C0F3B7
:1025C00002600090093DDFF86801FFF769FF3061A4
:1025D000D8233068DFF85C11084040F000403060DC
:1025E00000990FF2A43050F821000FF2BC114844BA
:1025F000401EB0FBF9F730684BEA000030600C2059
:10260000009A684303FB021142187B1E5268626005
:10261000626842EA032262604058216801F40001C6
:1026200008432060206822686168636803F01F0324
:10263000C0F389205B1CB8FBF3F34709920507FB45
:1026400003F5920D6D09A0EB471002FB03525843AE
:10265000C1F3042102EB9020491CB0FBF1F04FEADA
:1026600050094846FFF71CFF30612068000204D57E
:10267000306840F08040306003E0206840F40000A3
:102680002060A068C00704D4AAF1010ABAF1010FC2
:10269000F7DABAF1000F07D030684BEA000040F0DB
:1026A000104040F0010028E04FF0000926E0084605
:1026B000FFF7F6FE3061DFF88010206820F400009C
:1026C00020603068084040F000403060B9F1000FF1
:1026D00008BF002706D0B8FBF9F707B17F1E781CAA
:1026E000B8FBF0F94846FFF7DBFE3061306840EA9E
:1026F00087204BEA000040F000403060306820F452
:10270000700030604846BDE8F28F00000000FF70A6
:102710000000051000E30F4000EA0F4000E60F4004
:1027200000E00F40B0E00F400024F40060E10F40F3
:1027300040787D0100FC0FE0FF0300EF40420F00F6
:1027400000201C0080841E0000802500999E360019
:102750000040380000093D0000803E0000004B00B2
:10276000404B4C0000204E00808D5B0000C05D009F
:102770000080700000127A0000007D0080969800B2
:10278000001BB7000080BB00C0E8CE00647ADA000E
:102790000024F4000000FA0080A81201002D31018D
:1027A00000366E0140787D0140000000000000000E
:1027B000000100003E0008000000000000010000D1
:1027C000A0000000020000000001000034540100DD
:1027D00000000000000100002B7006000000000057
:1027E00000010000280000000000000000010000BF
:1027F0002700010000000000000100002000000090
:102800000000000000010000500000000200000075
:10281000000100001AAC00000000000000010000F0
:102820001794090000000000000100001698050040
:102830000000000000010000140000000000000083
:1028400000010000138008000000000000010000EB
:10285000A0000000080000000001000010000000BF
:10286000000000000001000028000000020000003D
:102870000001000040000000040000000001000012
:102880006000000000000000000100005D000C007E
:1028900000000000000100005000000000000000E7
:1028A000000100004E0002000000000000010000D6
:1028B00041AC010000000000000100003C000000ED
:1028C00000000000000100003A8009000000000044
:1028D00000010000300000000000000000010000C6
:1028E0002800000000000000000100002700010097
:1028F000000000000001000023600600000000004E
:10290000000100002160080000000000000100003C
:102910001E00000000000000000100001DC00400B7
:102920000000000000010000500000000200000054
:10293000000100001800000000000000000100007D
:102940001400000000000000000100006000000012
:1029500004000000000100000024F40030003000FA
:10296000005A62029100910000879303D200D200C6
:1029700000B4C4041301130100E1F505540154012E
:10298000000E27079501950100688909001C4E0E6D
:102990000146DFF84403006800E0406A02688A42AA
:1029A000FBD1704738B5CC4804681CE0A068012111
:1029B00000F06FFA0546A068294600F06FFAA806F5
:1029C00006D5206800F000F9A068202100F05BFA2D
:1029D00015F0500F06D0A068502100F05FFA206873
:1029E00000F01DF9646A002CE0D131BD2DE9F84FEB
:1029F00081460B9800278A461646B846002420B127
:102A0000022804D038BF402402E0602400E02024E3
:102A10005B1E032B0AD8DFE803F002040608062732
:102A200004E0022702E0822700E086270A980128B6
:102A300008BF4FF008083168DFF8A0B20C256943E1
:102A400059442743D1F80400BAA4FFF7F7FA3068D5
:102A50000BF1080168430858FFF7F0FA3068454366
:102A60009F48421900F10803516858590143106802
:102A7000C9B2FFF7D5FAB06848EA0703524649469B
:102A800000F07DF9B06800F0C5F9B068102100F0E1
:102A9000CAF9B068934900F0E6F94FF0000914F85C
:102AA0000910B06800F0DAF909F10109B9F1170F5E
:102AB000F5D3B068BDE8F44F702100F0E1B970B50E
:102AC0000646032E26D2844C216821B906E0096807
:102AD000B1421FD00146486A0028F8D12C2000F0EE
:102AE0001FFA05460C202E6046437C49881902686F
:102AF000AA604168E96100218068A861696000F00E
:102B0000ADFA2862002178486962A862216821B97B
:102B1000256006E0002070BD0146486A0028FBD110
:102B20004D62012070BD2DE9FC4104460D4616465C
:102B30001F46FFF72DFF80462046FFF729FF04467A
:102B40009DF824009DF82010019000913B46A46A56
:102B5000424631462846A0470120BDE8F68180B5AF
:102B6000FFF716FF006A90F81518481E8041C00F45
:102B700002BD80B5FFF70CFF002103E080B5FFF731
:102B800007FF0121006A80F8151801BD70B50446E1
:102B90000846FFF7FDFE016A01F5006213685668FA
:102BA0005D1CC5F30905B5420AD0CC54006A00F596
:102BB000006000F025F80169491C0161012070BD29
:102BC00001209075002070BD10B5FFF7E1FE0446AE
:102BD0000CE0415CA06800F03AF938B1206A00F6D8
:102BE000040000F00DF8C168491EC160206A00F5BC
:102BF0000062516813689942EBD10020907510BDB6
:102C00000168491CC1F309010160704780B5FFF7F5
:102C1000BFFE20218068BDE8044000F031B938B51E
:102C20002D490C6800E0646A21688142FBD1A068EC
:102C300000F0FEF808B3A06800F002F90146206A2F
:102C400000F60802136852685D1CC5F30905954239
:102C50000AD0184480F80014206AD0F80828521CC2
:102C6000C2F30902C0F80828C9B2A06800F0EFF862
:102C7000216A012081F81408D9E731BD1649096895
:102C800000E0496A0A688242FBD1086A90F8140899
:102C900000B10120704770B50F4A126800E0526A17
:102CA00013688342FBD10023084601E0C1545B1C3A
:102CB000116A01F6080465682668B54209D02944FE
:102CC0006D1C91F80014C5F309050A296560EDD162
:102CD00070BD0020207370BD98AA002080420000C3
:102CE00068420000A5290000ED29000010B500246D
:102CF000E0B2FFF7E4FE20B1641CE0B20128F7DD8A
:102D0000012010BD2DE9FE430A9C064689469046E7
:102D10001F4600250194009743464A463146E8B2D3
:102D2000FFF701FF20B16D1CE8B20128F2DD0120A0
:102D3000BDE8FE830A202020202020202020202003
:102D40002020202020202020200A00002D4A2E4B69
:102D500012680FF24C111A402C4B9A4208BF0FF226
:102D60008011002251F83230834203D101EBC200BE
:102D700040687047521C082AF4D300207047F8B509
:102D800004460E4617461D4600F02CF804F13000AC
:102D9000B6EB071F016804D241F0200101607F08F3
:102DA00002E021F020010160F000B0FBF7F0401CD0
:102DB00040088109616200F03F00A062E5620020E6
:102DC000A0612046BDE8F240FFE700F12C010A684F
:102DD00042F010020A6040F2013250F8301F1143F5
:102DE0000160704781690907FCD400F12C010A6871
:102DF00022F010020A6050F8301F054A11400160AD
:102E00007047000000E00F400000FF7000000A1053
:102E1000FEFCFFFF50F82C1F41F0100101607047CD
:102E200011430160704750F8302F22F01002F7E78D
:102E300080690009FFE700F0010080F001007047A1
:102E40008169C90654BF00684FF0FF30704782693E
:102E500092065ABF016001200020704782699206E5
:102E6000FCD40160704738B50C46FFF76FFF05468C
:102E70002146FFF72CFA2846BDE83240FFF74CBA4E
:102E800050F8382FCCE750F8382F22EA01010160C2
:102E90007047002914BF006CC06B704741647047D5
:102EA00000C000401500000000D0004016000000E7
:102EB00000E000403100000000F000404B00000046
:102EC000000001404C000000001001404D000000D7
:102ED000002001404E000000003001404F00000083
:102EE00000C000401500000000D0004016000000A7
:102EF00000E000403100000000F000404800000009
:102F00000000014049000000001001404A0000009C
:102F1000002001404B000000003001404C00000048
:102F200010B50446AFF30080204600F005F80446D3
:102F3000AFF30080204610BDF8B500F10F04E4089F
:102F4000E400A0422BD2082C04D2082402E008306E
:102F500000F047F8DFF800211368190005D10020C0
:102F600007E00568A5420DD2011D08680028F8D1C8
:102F70001868111D00E0191D0B6883420BD01D68F5
:102F8000A542F8D359B10B6818680838A04208D296
:102F9000586808600FE000F07DF80028D7D10020C5
:102FA000F2BD181908601D1D586828511E680F6869
:102FB000361B3E601C60096800291DBF4868002858
:102FC000081D0020106003F10800F2BD10B50400D8
:102FD00006D0AFF30080204600F003F8AFF3008086
:102FE00010BD002800D1704770B4A0F1080213682A
:102FF000072B2ED913F0070F2BD1DFF85C40616847
:1030000009B18A4203D25160626015E00146486806
:1030100008B19042FAD308680E18B24219D396420A
:1030200003D11B180B600A4606E0486810B1134430
:1030300098420ED350604A60506850B11368D5185A
:10304000854206D1002626600168CB1813604068CF
:10305000506070BC704700007CAA002010B540F69C
:103060001800FFF75DFF00F5006100228A7500235C
:1030700001220B614A758B60CB600B604B600B7556
:10308000002143544418491CB1F5806F84F8003482
:10309000F7D310BD0749086808B1002070470648FB
:1030A000C008C00008600549C908C900091A0160C4
:1030B000704700BF9CAA0020AFAC0020A8AC012044
:1030C00010B50446FFF7FCF960B12046FFF7FDF9A3
:1030D00038B92046FFF709FA2046FFF7F6F900282D
:1030E000FAD0012010BDF8B50446174622460E2A34
:1030F0000D461E4645DA7C48874242D200200C2C01
:103100007A4B02D00D2C04D007E0186B47F23051F7
:103110002BE0586B48F2120127E07549C9191DB11F
:10312000022D1AD00BD326E02CB3DFF8C8C16145BD
:1031300021D253F82200394640F0704009E02000C7
:103140001FD06D4881421CD253F82200394640F00E
:103150007140FFF7D8F900210CE068486849C019B0
:1031600088420ED253F82200394640F46050FFF7EF
:10317000CAF90121B1723472757277603060012032
:10318000F2BD0020F2BD002818BF00F0CDB800F05D
:10319000D1B8000038B515462DED028B0C462968D4
:1031A000584A91421BD000EE100AB8EE400ADFEDFB
:1031B0004C0A80EE200A00EE901AF8EE600A20EE2B
:1031C000200AB7EE001AB4EE410AF1EE10FA08DA5E
:1031D000DFED441AB4EE610AF1EE10FA01D40020DA
:1031E00012E0BCEEC08A18EE100A00F0B4F820001D
:1031F00007D000F0A5F800210F20FFF77BF800F0C2
:1032000099F885ED038A0120BDEC028B32BD0E20BA
:10321000FFF7ADB8002818BFFFF74EB8FFF750B85A
:1032200010B5394C206808B1002010BD2820FFF7E8
:1032300077FE3649364A016142613649364A816134
:10324000C2613649364A016242622060FFF738F8AF
:1032500020682C4901604160012010BD10B52A4B47
:103260001B6823B11C69A04710B1012010BD0020CC
:1032700010BD254A1268002A00D1704780B55369F5
:10328000984700B1012002BD70B51F4C206860B1A5
:103290000025244E21684A6AE8B256F8200090477B
:1032A0006D1CE8B20728F5DB012070BD16490968DE
:1032B00000291CBF096A084770471349096800299B
:1032C0001CBF8969084770470F48006800281CBF69
:1032D000C069004770470C48006800B1006870473B
:1032E00000007A440100804B010E270744000020B3
:1032F000C0B4B3FFC184C612C1EC4F1C00F7C2FFBB
:10330000416F4001EFBEADDE94AA0020E73000001F
:1033100095310000873100000F32000015320000A7
:10332000C1300000144200000D48016841F0050161
:10333000016070470A480168490849000160704708
:1033400080B501460F20FEF7C2FF0548016841F035
:103350000201016001BD0349401E08607047000082
:1033600010E000E014E000E010B504462179206888
:10337000FEF72EFE00281EBF207900280120A06045
:1033800010BD002818BF00F0ADB8704710B54F4A07
:10339000146820680021FEF702FE00E0E46921794C
:1033A0000142FBD02068FEF702FE2046FFF7DCFF5B
:1033B0002069A168D0F8A421BDE81040104738B5B5
:1033C0000C46002520B1022804D038BF0C2502E0AD
:1033D0000A2500E0082521792068FEF701FE217901
:1033E00020682B460122FEF71DFD2179206801226D
:1033F000FEF7F2FC20683649FEF7DCFD21792068F3
:10340000BDE83440FEF7C8BDF8B506463546062D82
:1034100026DA2E4C206828B1017BB14220D0C06949
:103420000028F9D12020FFF77BFD0746294850F8F6
:103430003510396000EBC500274942682748B8605D
:10344000796100212648B861F9613A713E73012122
:10345000384600F08CF83861216821B9276006E011
:103460000020F2BD0146C8690028FBD1CF610120D0
:10347000F2BD10B50024E0B2FFF7C6FF00B1641C36
:10348000E0B20528F7DB012010BD38B504460F482F
:10349000056804E029462046FFF791FFED69E869D9
:1034A0000028F7D1012032BD80B505280CDA074A83
:1034B000126800E0D269137B8342FBD11069D0F817
:1034C0009C219047012002BD002002BD88AA002057
:1034D0008D3300007C41000069330000EFBEADDE9B
:1034E00083330000FFF772BD002818BFFFF7FABF53
:1034F000704730B500F5CC731A691C68A24201D13F
:10350000002030BD002400E0641C00EB8405AA68A4
:10351000002AF9D1A9601869401C1861012030BD4A
:1035200070B5002200F5CC73002609E000EB8204A0
:10353000A5688D4208BFA6601C69641E1C61521CF0
:103540001C68A242F2D3012070BD70B504460D463E
:10355000002607E004EB8600816811B18A682846DE
:103560009047761CD4F898018642F3D370BD38B5E5
:1035700004460D464FF4D670FFF7D2FC652D04606B
:1035800014D200F5CC710A4A0A4B0D604260CB6040
:10359000094A0A4B4A608B600022002300EB820438
:1035A000521C642AA360F9DB0B6132BD002032BDDE
:1035B000E93400004B350000F334000021350000F1
:1035C0002DE938403FA43A4D286800F0A9F810B919
:1035D000204600F0FBF8052000F0ACF9F4E700000D
:1035E0002DE9F84F0FF2281446A50FF204180FF238
:1035F000F00A0FF2E409DFF8BCB02BA62BA70DE010
:10360000584600F01DF9294600F025F80028F7D1AA
:10361000204600F0DBF8052000F08CF9584600F059
:103620000FF9394600F017F820B9012100F0FCF934
:103630004846EEE7314600F00EF818B9002100F0D8
:10364000F3F9E8E7514600F006F80028E3D14046D8
:1036500000F0BCF8D7E7584600F004BA80B5052062
:1036600000F068F9FBE780B500F007FA00F024FAF3
:103670000021002000F073F80021012000F06FF815
:103680000021022000F06BF806210B4800F006F93B
:1036900003210A4800F002F90521094800F0FEF86C
:1036A00000F033FAFEE700004F4646004F4E0000A0
:1036B00090AA00206CA100205D360000C1350000FA
:1036C000E1350000425554544F4E204F4E452041A5
:1036D0004354495645200A006C6564206F6E0A0009
:1036E0004D415354455220434F4E54524F4C0000CD
:1036F000454E5445522050415353574F52443A205F
:103700000A00000050415353574F5244000000003C
:10371000414343455353204752414E5445440000D2
:103720002549096800E04969CA688242FBD14868B6
:103730002249884208BF4FF0FF307047002818BF69
:10374000FFF7D0BE70470968486070470169C068DC
:10375000C0B2FFF7A9BE817200214172704770B5F7
:1037600005460E462420FFF7DBFB0446022045F009
:103770000A0121602072002111486172E061E56058
:1037800010490E4821626060A67220460E4900F082
:10379000D7F92061002060612046FFF7D7FF064877
:1037A000016811B9046004E0014648690028FBD1B2
:1037B0004C61206870BD000084AA0020EFBEADDE21
:1037C0003D37000057370000473700000EB418B5EA
:1037D000ADF5806D044668464FF4806100F0BAF99B
:1037E000FFAA10322146684600F0B8F90020FFF722
:1037F000B6F948B10020FFF709FA00200DF5806DF9
:1038000001B010BC5DF810FBFFF7B3F9002400E035
:10381000641C6846FDF780FC844209D21DF8040050
:103820000021FFF7B3F90028F2D1FFF7A7F9E1E78C
:103830000020FFF7A3F90020FFF7E8F90120DDE7FA
:1038400010B504460021002201E06254491C605C6E
:103850000028FAD1FFF712FA20B121460020FFF725
:103860001AFA204610BD000030B5002041F21801C0
:10387000454A002401FB00F313445D1858601C7393
:10388000401C08281D60F5DD48F2C0013F48545037
:10389000426084603E490C73016030BDF8B5064655
:1038A0003A4D0F46281D00F073F9040002D14FF085
:1038B000FF30F2BD0120207341F2100160186773E0
:1038C0004FF080724260066041F2180103206218D6
:1038D000304BC6B2401C7642C7B242F82630082FA1
:1038E000F7DD2D4909204342401C42F82310B0F572
:1038F000806FF8D304F6D870A060214605F1080067
:1039000000F04DF96068F2BD10B5204C21680A7BCB
:10391000012A04BF04F1080000F041F904F1080095
:1039200000F06FF92168E060884201D0012010BDED
:10393000002010BD10B50446FEF7C2FC1348006815
:10394000022101730461FFF7DFFF10B10E20FEF7C3
:103950000EFDBDE81040FEF7AFBC38B501240B4D9D
:1039600041F21801084861430144086940B1401E12
:10397000086105D101220A7305F1080000F00FF972
:10398000641C092CECD331BD7C0000206CAA002003
:1039900054910020AFEC0D00EFBEADDE38B505460A
:1039A000062D20D22C4C216821B906E0097BA942C2
:1039B00019D1014648690028F8D11820FFF7B0FA5C
:1039C00002462648157300EBC5014B682449137164
:1039D000002350F835001060916013615361216835
:1039E00021B9226006E0002032BD01464869002866
:1039F000FBD14A61012032BD80B5174A126812B965
:103A0000002002BD5269137B8342FBD131B10129F1
:103A100002BF11791068FEF7EDFA03E01179106822
:103A2000FEF7EDFA012002BD80B50B4A126812B90B
:103A3000002002BD5269137B8342FBD113791068C9
:103A400009B11A4602E05A1E9241D20F1946FEF7FA
:103A5000C2FA012002BD00008CAA0020A44100008F
:103A6000EFBEADDE10F8012B11F8013B0AB19A420E
:103A7000F8D0D01A70470000FEE780B5FFF7F4FEDB
:103A8000BDE8044000210148FFF708BF793A000073
:103A900080B50020FFF70AFC0020FFF70EFCFFF7BF
:103AA0005CFFFFF731FF08B1FFF70EFC0120FFF7C5
:103AB000FDFBBDE8024039E080B5FFF7B1FB1D4AD0
:103AC00001210A20FFF7CAFBFFF7DEFB1A490A2093
:103AD000FFF7CFFBFFF7CDFC10B10020FFF7D5FCBF
:103AE0000020FFF75BFF01210020FFF785FFFFF7B4
:103AF000FDF848B1FFF7EFFB002100910023002201
:103B00004FF41651FFF7FEF801BD38B50120FFF75D
:103B1000CDFB0024094DE0B255F82000FFF756FE1A
:103B2000641CE0B21028F6D3BDE832400120FFF754
:103B3000C4BB000000879303913A000004000020FA
:103B400038B504460D460C20FFF7EAF9856004609D
:103B500032BD0000002200F05DB8000037B5044619
:103B600000250A460194009502AB01A90748784454
:103B70001A30FCF748FB019A157000284EBF044626
:103B80000198041B204603B030BD00BF43D5FFFFA2
:103B900001460A68100001D10020704737E030B5B7
:103BA0000246106810B90860116030BD447B4B7B41
:103BB0009C4238BF086021D3A34216D200E02246BF
:103BC00014682068457BAB4201D20028F7D19D42A2
:103BD00006D100E0024610680468657B9D42F9D07A
:103BE000106803680B6008E0224614682068457B73
:103BF0009D4201D10028F7D10860126811600020B1
:103C000030BD01460A68100001D1002070471268DB
:103C10000A607047401810F0030308D0C91A1FD378
:103C2000DB0748BF00F8012D28BF20F8022D130044
:103C300030B414461546103928BF20E93C00FAD8A4
:103C4000490728BF20E90C0048BF40F8042D89002F
:103C500028BF20F8022D48BF00F8012D30BC704766
:103C6000C91818BF00F8012DCB0728BF00F8012D97
:103C700070470000181000003C3D0000783D000037
:103C8000B43D0000F03D000078400000E04000003E
:103C9000AC400000D03F00002C3E0000683E000019
:103CA000A43E0000E03E00001C3F0000583F000022
:103CB000943F000008400000800100004002000026
:103CC000C002000080030000000400004004000067
:103CD00040050000C005000000060000400600008E
:103CE0008006000010000000300000003800008056
:103CF00072B6EFF3148040F0010080F314882DE9D0
:103D0000F00F0C480168C1F808D00B480168D1F8E1
:103D100008D0084808490A680260BDE8F00F6FF053
:103D2000060EEFF3148020F0010080F3148862B6D1
:103D3000704700006CAA002078AA00206B6B6B6BA8
:103D40006B6B6B6B20202020202020202020202047
:103D5000202020204F4F4F4F4F4F4F4F4F202020BC
:103D60002020202020535353535353535353535322
:103D700053535353200A00006B3A3A3A3A3A3A6B9B
:103D800020202020202020202020202020204F4FD5
:103D90003A3A3A3A3A3A3A3A3A4F4F2020202053A8
:103DA000533A3A3A3A3A3A3A3A3A3A3A3A3A3A3A5A
:103DB000530A00006B3A3A3A3A3A3A6B20202020F4
:103DC00020202020202020204F4F3A3A3A3A3A3AF9
:103DD0003A3A3A3A3A3A3A4F4F20533A3A3A3A3A1A
:103DE0005353535353533A3A3A3A3A3A530A000028
:103DF0006B3A3A3A3A3A3A6B202020202020202091
:103E00002020204F3A3A3A3A3A3A3A4F4F4F3A3A0C
:103E10003A3A3A3A3A4F533A3A3A3A3A5320202009
:103E20002020535353535353530A00006B3A3A3AEA
:103E30003A3A3A6B3A3A3A3A3A6B202020204F3AD3
:103E40003A3A3A3A4F20202020204F3A3A3A3A3A2A
:103E50004F202020205353533A3A3A3A3A3A3A3ACA
:103E60005353200A000000006B3A3A3A3A3A3A3A81
:103E70003A3A3A3A6B20202020204F3A3A3A3A3ADE
:103E80004F20202020204F3A3A3A3A3A4F20202023
:103E9000202020205353535353533A3A3A3A532055
:103EA0000A0000006B3A3A3A3A3A3A3A3A3A3A3A1F
:103EB0006B20202020204F3A3A3A3A3A4F202020D7
:103EC00020204F3A3A3A3A3A4F2020202020202012
:103ED0002020202020533A3A3A3A3A530A00000070
:103EE0006B3A3A3A3A3A3A6B3A3A3A3A3A6B2020D3
:103EF00020204F3A3A3A3A3A3A4F2020204F3A3A65
:103F00003A3A3A3A4F20202020202020202020201A
:103F100020533A3A3A3A3A530A0000006B3A3A3A96
:103F20003A3A3A6B206B3A3A3A3A3A6B2020204FB1
:103F30003A3A3A3A3A3A3A4F4F4F3A3A3A3A3A3AA2
:103F40003A4F535353535353532020202020533A76
:103F50003A3A3A3A530A00006B3A3A3A3A3A3A6BEA
:103F600020206B3A3A3A3A3A6B2020204F4F3A3AA7
:103F70003A3A3A3A3A3A3A3A3A3A3A4F4F20533A78
:103F80003A3A3A3A3A5353535353533A3A3A3A3AFB
:103F9000530A00006B3A3A3A3A3A3A6B2020206BC7
:103FA0003A3A3A3A3A6B202020204F4F3A3A3A3A7E
:103FB0003A3A3A3A3A4F4F202020533A3A3A3A3A6C
:103FC0003A3A3A3A3A3A3A3A3A3A53530A000000FD
:103FD0006B3A3A3A3A3A6B206B3A3A3A3A3A6B20B1
:103FE00020204F3A3A3A3A3A4F20202020204F3AA8
:103FF0003A3A3A3A4F202053533A3A3A3A3A3A53F5
:10400000535353530A0000006B6B6B6B6B6B6B6B02
:10401000202020206B6B6B6B6B6B6B202020202093
:104020004F4F4F4F4F4F4F4F4F20202020202053B6
:1040300053535353535353535353535353530A00EC
:1040400030B4002512E050F8042BD30744BF4A4493
:10405000521E091F042942F8045BFAD213468C074A
:1040600044BF15809B1CC90748BF1D7050F8041B36
:104070000029E8D130BC70476B3A3A3A3A3A6B20A3
:104080002020206B6B6B6B6B6B6B4F3A3A3A3A3A72
:104090003A4F2020204F3A3A3A3A3A3A4F533A3A76
:1040A0003A3A3A532020200A000000006B3A3A3A8C
:1040B0003A3A6B20206B3A3A3A3A3A6B20204F3A20
:1040C0003A3A3A3A4F20202020204F3A3A3A3A3AA8
:1040D0004F20533A3A3A3A53535353200A000000C0
:1040E0006B3A3A3A3A3A6B2020206B3A3A3A3A3AEB
:1040F0006B204F3A3A3A3A3A4F20202020204F3A4C
:104100003A3A3A3A4F533A3A3A3A3A53200A000086
:1041100000F016F8002801D000F014F8064807490E
:104120000A6810448546AFF300800020AFF300809A
:10413000FFF799FA00F01AF85491002000000020CF
:104140000120704710B5074979441831064C7C446A
:10415000163404E00A68081D114488470146A1424C
:10416000F8D110BD8C000000AC00000000F000B8D9
:1041700007463846FDF7F2FDFBE70000004000402F
:10418000010000000040004002000000004000402C
:104190000400000000400040080000000000000093
:1041A00000000000005000400100000000500040EE
:1041B00002000000005000400400000000500040D9
:1041C0000800000000500040100000004EF688512A
:1041D000CEF20001086840F470000860BFF34F8F12
:1041E000BFF36F8F4FF00170E1EE100A70470000CF
:1041F00051FEFFFF28AA00007C0000200000000004
:104200008FCEFFFF7C0000006CFAFFFF0000002053
:1042100000000000000800F0010800F00F0800F0A6
:104220000D0800F0090800F0061800F0041800F06E
:104230000548014603B4684680F30988AFF300805F
:10424000FFF7C4FFFFF764FFA5EDF5FE0348016823
:1042500041F470010160FFF7EBBF000088ED00E062
:10426000FEE7FEE7FEE70000005006400100000008
:1042700002000000001006400100000002000000E3
:104280000020014001000D0001040D00000001406C
:0842900001000900010409000E
:040000050000423184
:00000001FF
