:100000009CA80020BD180000D5180000D7180000DB
:10001000D9180000D9180000D9180000000000000D
:10002000000000000000000000000000D9180000DF
:10003000D91800000000000075170000D918000052
:10004000D9180000D9180000D9180000D9180000EC
:10005000D9180000D9180000D9180000D9180000DC
:10006000D9180000D9180000D9180000D9180000CC
:10007000D9180000D9180000D9180000D9180000BC
:10008000D9180000D9180000D9180000D9180000AC
:10009000D9180000D9180000D9180000D91800009C
:1000A000D9180000D9180000D9180000D91800008C
:1000B000D9180000D9180000D9180000D91800007C
:1000C000D9180000D9180000D9180000D91800006C
:1000D000D9180000D9180000D9180000D91800005C
:1000E000D9180000D9180000D9180000D91800004C
:1000F000D9180000D9180000D9180000D91800003C
:10010000D9180000D9180000D9180000D91800002B
:10011000D9180000D9180000D9180000D91800001B
:10012000D9180000D9180000D9180000D91800000B
:10013000D9180000D9180000D9180000D9180000FB
:10014000D9180000D9180000D9180000D9180000EB
:100150000000000000000000D9180000D9180000BD
:10016000D9180000D918000000000000D9180000BC
:10017000D9180000D9180000D9180000D9180000BB
:10018000D9180000D9180000D9180000D9180000AB
:10019000D9180000D9180000D9180000D91800009B
:1001A000D9180000D9180000D9180000D91800008B
:1001B000D9180000D9180000D9180000D91800007B
:1001C000D9180000D9180000D9180000D91800006B
:1001D000D9180000D9180000D9180000D91800005B
:1001E000D9180000D9180000D9180000D91800004B
:1001F000D9180000D9180000D9180000D91800003B
:1002000000210FF2B44252F83130834203D302EBA3
:10021000C10040687047491C0629F4D3002070478C
:10022000C0F30721DFF84C2203E0C0F30721DFF819
:10023000482200065118800D40EA411040F08440E9
:10024000006800B10120C0B27047C0F30721DFF899
:100250002C2200065118800D40EA411040F08440E5
:100260000121016070472DE9F84FDFF81422DFF813
:10027000FC31894611681940DFF8F43199424CD0BD
:1002800000F03803102BC0F384154FF4004ADFF858
:10029000F81104D188464FF0000B15252EE0302BC5
:1002A00004D147F230584FF4001B27E0382B03D11C
:1002B000D0464FF4800B21E010F0380F1BD1A5F190
:1002C0000903122B29D20FF2D41353F82580D36FD0
:1002D00023F01C03072DA8BF43F01003D3674FF092
:1002E0004C7B4FF40023146DE40502D45B1EFAD15D
:1002F00013E01BB911E04FF00008C34610F4605F33
:10030000DFF88841DFF87C6140F0818010F0380F21
:100310001CBF00F03801102901D00020A3E0C0F379
:1003200002600090093DDFF86801FFF769FF306166
:10033000D8233068DFF85C11084040F0004030609E
:1003400000990FF2A43050F821000FF2BC1148447C
:10035000401EB0FBF9F730684BEA000030600C201B
:10036000009A684303FB021142187B1E52686260C8
:10037000626842EA032262604058216801F4000189
:1003800008432060206822686168636803F01F03E7
:10039000C0F389205B1CB8FBF3F34709920507FB08
:1003A00003F5920D6D09A0EB471002FB0352584371
:1003B000C1F3042102EB9020491CB0FBF1F04FEA9D
:1003C00050094846FFF71CFF30612068000204D541
:1003D000306840F08040306003E0206840F4000066
:1003E0002060A068C00704D4AAF1010ABAF1010F85
:1003F000F7DABAF1000F07D030684BEA000040F09E
:10040000104040F0010028E04FF0000926E00846C7
:10041000FFF7F6FE3061DFF88010206820F400005E
:1004200020603068084040F000403060B9F1000FB3
:1004300008BF002706D0B8FBF9F707B17F1E781C6C
:10044000B8FBF0F94846FFF7DBFE3061306840EA60
:1004500087204BEA000040F000403060306820F414
:10046000700030604846BDE8F28F00000000FF7069
:100470000000051000E30F4000EA0F4000E60F40C7
:1004800000E00F40B0E00F400024F40060E10F40B6
:1004900040787D0100FC0FE0FF0300EF40420F00B9
:1004A00000201C0080841E0000802500999E3600DC
:1004B0000040380000093D0000803E0000004B0075
:1004C000404B4C0000204E00808D5B0000C05D0062
:1004D0000080700000127A0000007D008096980075
:1004E000001BB7000080BB00C0E8CE00647ADA00D1
:1004F0000024F4000000FA0080A81201002D310150
:1005000000366E0140787D014000000000000000D0
:10051000000100003E000800000000000001000093
:10052000A00000000200000000010000345401009F
:1005300000000000000100002B7006000000000019
:100540000001000028000000000000000001000081
:100550002700010000000000000100002000000052
:100560000000000000010000500000000200000038
:10057000000100001AAC00000000000000010000B3
:100580001794090000000000000100001698050003
:100590000000000000010000140000000000000046
:1005A00000010000138008000000000000010000AE
:1005B000A000000008000000000100001000000082
:1005C0000000000000010000280000000200000000
:1005D00000010000400000000400000000010000D5
:1005E0006000000000000000000100005D000C0041
:1005F00000000000000100005000000000000000AA
:10060000000100004E000200000000000001000098
:1006100041AC010000000000000100003C000000AF
:1006200000000000000100003A8009000000000006
:100630000001000030000000000000000001000088
:100640002800000000000000000100002700010059
:100650000000000000010000236006000000000010
:1006600000010000216008000000000000010000FF
:100670001E00000000000000000100001DC004007A
:100680000000000000010000500000000200000017
:100690000001000018000000000000000001000040
:1006A00014000000000000000001000060000000D5
:1006B00004000000000100000024F40030003000BD
:1006C000005A62029100910000879303D200D20089
:1006D00000B4C4041301130100E1F50554015401F1
:1006E000000E27079501950100688909001C4E0E30
:1006F00010B5DFF84432DFF844421B680FF248219E
:1007000023401822DFF83842A34204BF0FF2F82139
:100710001B22002300E05B1C934207D251F83340B8
:100720008442F8D101EBC300406810BD002010BD29
:1007300030B5CB4300F58164D50725684CBF0D4328
:100740001D40256000F20444950725684CBF0D4309
:100750001D40256000F20C44550747BF236819432C
:1007600021681940216000F5A760D10301684EBFE0
:1007700041F0010149084900016030BD2DE9F04315
:10078000DFF8B491DFF8B481D9F80040DFF8B45154
:1007900008EA0404AC421FD04FF0000C00F6C47EFF
:1007A000012404FA0CF6314211D04FEA4C04DEF871
:1007B00000600327A740BE43CEF80060C2F3411794
:1007C000DEF8006007FA04F43443CEF800400CF180
:1007D000010CBCF1080FE3DBCC4300F5A066D707A2
:1007E00037684CBF41EA070E04EA070EC6F800E07E
:1007F00000F2045C9607DCF800604CBF41EA060E8C
:1008000004EA060E00F5A166CCF800E05707376849
:100810004CBF41EA070E04EA070EC6F800E000F5F7
:10082000A366170737684CBF41EA070E04EA070EB4
:10083000C6F800E0D9F8006008EA0606AE4209D022
:1008400000F23C5CD206DCF800204CBF0A43224098
:10085000CCF8002000F20C52DE0716684CBF41EACB
:10086000060C04EA060CC2F800C000F5A2629E075E
:1008700016684CBF41EA060C04EA060CC2F800C038
:1008800000F214525E0716684CBF41EA060C04EAF7
:10089000060CC2F800C000F21C521E0716684CBFBE
:1008A00041EA060C04EA060CC2F800C0D9F80020A0
:1008B00008EA0202AA4210D000F244529D051568CF
:1008C0004CBF0D432540156000F5A86213F4407F2E
:1008D000156814BF0D432540156000F5A560002B79
:1008E00007BF02681143016821400160BDE8F08341
:1008F00000F582601BE000291ABF00F583600068E4
:10090000D0F814047047C0F81C14704738B50C4672
:10091000FFF7EEFE0546214600F0EDF82846FFE71A
:10092000BDE8324000F00CB950F821007047026871
:10093000114301607047000000E00F400000FF70AD
:1009400000000A10000005100040004010000000E8
:100950000080054010000000005000401100000021
:1009600000900540110000000060004012000000EF
:1009700000A00540120000000070004013000000BD
:1009800000B00540130000000040024014000000C9
:1009900000C0054014000000005002402E0000007E
:1009A00000D005402E000000006002402F00000033
:1009B00000E005402F000000007002403000000001
:1009C00000F005403000000000D003404600000069
:1009D00000000640460000000010064047000000EE
:1009E0000020064048000000003006407F00000064
:1009F00000400640800000000050064084000000D7
:100A0000006006408C000000004000401000000024
:100A10000080054010000000005000401100000060
:100A2000009005401100000000600040120000002E
:100A300000A00540120000000070004013000000FC
:100A400000B0054013000000004002401400000008
:100A500000C0054014000000005002402E000000BD
:100A600000D005402E000000006002402F00000072
:100A700000E005402F000000007002403000000040
:100A800000F005403000000000D0034043000000AB
:100A90000000064043000000001006404400000033
:100AA00000200640450000000030064058000000CD
:100AB0000040064059000000005006405C00000065
:100AC0000060064064000000007006406C000000FA
:100AD000008006406D000000009006407F0000008E
:100AE00080B500F0EDF802E080B500F0E5F800B167
:100AF0000120C0B202BDF0B5394C3A4A2568954292
:100B000009D02568002655F8267042F82670761C14
:100B10009B2EF8D3226042F82010F0BD10B50FF2E2
:100B2000D402830852F82320136800F00300C000A9
:100B3000FF248440A34301FA00F01843106010BD65
:100B40000428294903D1086840F480300AE00528C8
:100B500003D1086840F4003004E0062804D1086896
:100B600040F48020086070470F2804D11F480168B6
:100B700041F002010DE010280CD3A0F11002012178
:100B800002F01F0291400FF208121038400952F88B
:100B90002000016070470228154903D1086840F021
:100BA00000400AE00E2803D1086840F0805004E0BD
:100BB0000F2804D1086840F0806008607047102852
:100BC0000CD3A0F11002012102F01F0291400FF29C
:100BD000D4021038400952F820000160704700002C
:100BE00008ED00E000A4002024ED00E010E000E0AB
:100BF00004ED00E00000000018ED00E01CED00E056
:100C000020ED00E000E400E004E400E008E400E09F
:100C10000CE400E010E400E014E400E018E400E07C
:100C20001CE400E020E400E024E400E028E400E02C
:100C30002CE400E030E400E034E400E038E400E0DC
:100C40003CE400E040E400E044E400E048E400E08C
:100C50004CE400E050E400E054E400E058E400E03C
:100C60005CE400E060E400E064E400E068E400E0EC
:100C70006CE400E070E400E074E400E078E400E09C
:100C80007CE400E080E400E084E400E088E400E04C
:100C900000E100E004E100E008E100E00CE100E038
:100CA00010E100E000E200E004E200E008E200E021
:100CB0000CE200E010E200E0EFF3108072B6704743
:100CC000EFF3108062B6704710B504002000FFF704
:100CD000A7FA002810D02000FFF7A7FA002801D0BB
:100CE00001200AE02000FFF7B0FA2000FFF79DFA8C
:100CF0000028FAD0012000E0002010BD70B5049E4D
:100D0000059DC0B2002800F07F801000C0B200280E
:100D10007AD1C9B200290FD002291DD014D30429D9
:100D20002AD021D3062937D02ED3082944D03BD34B
:100D30000A2951D048D396E04FF410714FF4605017
:100D4000FFF791FA04008EE04FF430714FF46050D9
:100D5000FFF789FA040086E04FF460714FF46050A9
:100D6000FFF781FA04007EE04FF480614FF4605099
:100D7000FFF779FA040076E04FF488614FF4605091
:100D8000FFF771FA04006EE04FF4A8614FF4605071
:100D9000FFF769FA040066E04FF4B8614FF4605061
:100DA000FFF761FA04005EE04FF4C0614FF4605059
:100DB000FFF759FA040056E04FF4C8614FF4605051
:100DC000FFF751FA04004EE04FF4D0614FF4605049
:100DD000FFF749FA040046E0DBB2002B12D0F6B26E
:100DE000002E08D0012E0ED129005FF07040FFF7D1
:100DF0003AFA040007E029005FF07140FFF733FA88
:100E0000040000E000242EE0D2B2012A04D02AD34C
:100E1000032A23D01BD326E0DBB2002B10D0F6B27E
:100E2000002E07D0012E11D129002848FFF71BFA08
:100E300004000BE029002648FFF715FA040005E03E
:100E4000290043F61000FFF70EFA04000BE029001A
:100E500043F63000FFF707FA040004E029001D48BC
:100E6000FFF701FA0400200070BD80B5FFF738FEDF
:100E700001BD80B5FFF738FE01BD000080B500EE72
:100E8000100A00EE901AB8EE400A9FED0E1A80EE9E
:100E9000010AF8EE600A20EE200AB5EE400AF1EEF3
:100EA00010FA06D0DFED080AB4EE600AF1EE10FA8F
:100EB00000DBFEE7BCEEC00A10EE100A00F077F887
:100EC00001BD000000007A440100804B100000F0DA
:100ED000100000F13838008080B51000C9B2002938
:100EE00007D000F053F800210F20FFF717FE00F0A5
:100EF00058F800F045F801BD80B50E20FFF74BFE15
:100F000001BDF0B40246106895681318506803EBF1
:100F10005004C00748BF4D44A3422DD013F8016BC5
:100F200016F0030004BF13F8010BC01C31090F2990
:100F300007D113F8011B0F3103E013F8017B05F80B
:100F4000017B401EF9D10029E6D013F8010BC6F34E
:100F50008106032E08BF13F8016B00EB0620404208
:100F600028440026B71E8F421EBF10F8017B05F8EB
:100F7000017B761CF6D1CFE7F0BC02F10C00704784
:100F80000D48016841F005010160704780B50146D8
:100F90000F20FFF7B0FD0848016841F00201016031
:100FA00001BD0548016841F0020101607047034935
:100FB000401E08607047000010E000E014E000E010
:100FC00010B4002112E041F21803574A0800C0B2E1
:100FD000584310440C00E4B24460002404730C0035
:100FE000E4B25C4322441A440260491C0800C0B2C7
:100FF0000928E8DB4C48002148F2C00281504B49E7
:10100000086000204A4908604A48002101734A49A3
:10101000086010BC704770B505000E00434800F032
:1010200093F80400002C02D15FF0FF302FE0012084
:10103000207366735FF0807041F21401605041F2DA
:1010400010002550032009E00100C9B2494204EB19
:10105000810141F21802394B8B50401C0100C9B28A
:101060000929F1DB092007E03549424204EB8202FD
:1010700041F21803D150401CB0F5806FF4D304F650
:10108000D870A06021002A4800F068F8606870BD40
:1010900038B5294C2068007B012803D121682448F9
:1010A00000F05CF8274D224800F0A9F82860286875
:1010B0002168884201D0012000E0002032BD80B5C7
:1010C0001D4902220B681A730968001D00F046F8DA
:1010D00000F03CF901BD80B5001D00F090F800283B
:1010E00005D0012101730100114800F037F801BD5E
:1010F00010B5012414E00C4841F2180101FB04F181
:101100000144086900280AD00869401E086108697E
:10111000002804D101200873054800F01FF8641C62
:10112000092CE8D310BD0000F80000208CA6002098
:1011300090A60020D091002088A60020AFEC0D00E2
:10114000EFBEADDE94A6002001000868002801D1A2
:10115000002002E00A6812680A6070470200106806
:10116000002804D1106808601160002014E01068A5
:10117000407B4B7B984204D21068086011600020CD
:101180000AE0487B13685B7B984207D31068407B7A
:101190004B7B984222D0012070471268487B13682D
:1011A0001B685B7B984203D2106800680028F4D16A
:1011B00010680068407B4B7B984207D100E01268C2
:1011C00010680068407B4B7B9842F8D0106800683C
:1011D0000860106801600020DEE71268106800688F
:1011E000407B4B7B984203D1106800680028F4D103
:1011F000106800680860106801600020CCE70100FA
:101200000868002801D1002002E00A6812680A601C
:101210007047000080B5FFF72CFEFFF769FFFFF76E
:1012200037FF002801D0FFF767FEFFF71EFE01BD64
:10123000E0B5019001200090012301220B21002044
:10124000FFF75CFD002800D1FEE70EBD38B50400B5
:101250002100002000F082F80500052C06D2286845
:10126000FFF732FD0028FAD0012000E0002032BD57
:1012700038B504002100032000F070F80500062CAA
:1012800006D22868FFF720FD0028FAD0012000E0F0
:10129000002032BD10B5002403E02000FFF7D6FF88
:1012A000641C052CF9DB002403E02000FFF7E0FFBD
:1012B000641C062CF9DB002403E0200000F02BF86E
:1012C000641C022CF9DB002010BD80B50B0011005E
:1012D000C0B2002808D01800FFF7D0FD074A01214E
:1012E0000120FFF7F9FD07E01800FFF7C7FD002216
:1012F00000210120FFF7F0FD002002BD15120000C3
:1013000080B5C0B2002802D0FFF7AFFD01E0FFF7C3
:10131000B0FD002002BD38B504002100052000F01A
:101320001DF80500200000F03CF804002868FFF7D5
:10133000CBFC2068FFF7C8FC002032BD80B5FFF76A
:1013400094FD01BD80B5FFF794FD01BD80B5FFF7A9
:101350009FFE002801D0FFF7CFFD01BD0200D2B2F1
:10136000002A06D0022A10D0032A08D0052A12D05B
:1013700016E00E4A0C20414302EB010010E00C4A3B
:101380000C20414302EB01000AE00A4A0C204143D1
:1013900002EB010004E0084A0C20414302EB01008B
:1013A0007047064900010844704700000000002013
:1013B0003C000020780000209C000020CC00002091
:1013C00010B50446AFF30080204600F005F804464F
:1013D000AFF30080204610BDF8B500F10F04E4081B
:1013E000E400A0422BD2082C04D2082402E00830EA
:1013F00000F047F8DFF800211368190005D100203C
:1014000007E00568A5420DD2011D08680028F8D143
:101410001868111D00E0191D0B6883420BD01D6870
:10142000A542F8D359B10B6818680838A04208D211
:10143000586808600FE000F061F80028D7D100205C
:10144000F2BD181908601D1D586828511E680F68E4
:10145000361B3E601C60096800291DBF48680028D3
:10146000081D0020106003F10800F2BD10B5040053
:1014700006D0AFF30080204600F003F8AFF3008001
:1014800010BD002800D1704770B4A0F108021368A5
:10149000072B2ED913F0070F2BD1DFF85C406168C2
:1014A00009B18A4203D25160626015E00146486882
:1014B00008B19042FAD308680E18B24219D3964286
:1014C00003D11B180B600A4606E0486810B11344AC
:1014D00098420ED350604A60506850B11368D518D6
:1014E000854206D1002626600168CB18136040684B
:1014F000506070BC7047000080A600200749086853
:1015000008B1002070470648C008C00008600549BF
:10151000C908C900091A0160704700BF98A60020D9
:10152000A7A80020A0A8012010B50400A168C9B296
:101530006068FFF7F9F9002804D0A068002801D0FE
:10154000012000E00020C0B2E06010BD80B500289E
:1015500002D000F07DF8002001BD80B50121406877
:10156000FFF7C9F9002801D0012000E00020C0B237
:1015700002BD80B581684068FFF7C5F9012002BD52
:1015800070B504000D00049EDBB2002B02D0012BCD
:1015900013D024E0D2B2002A07D00C230122B16874
:1015A000C9B27068FFF7EAF806E008230122B168C3
:1015B000C9B27068FFF7E2F811E0D2B2002A07D092
:1015C0000A230122B168C9B27068FFF7D7F806E0B4
:1015D00008230122B168C9B27068FFF7CFF8E4B2FE
:1015E000002C0ED00122B168C9B27068FFF7A0F8D4
:1015F00029007068FFF78AF9B1687068FFF778F919
:1016000001E00020306170BD70B504000D001600CF
:101610002420FFF7D5FE0460456086600649C1605E
:1016200006498161064941610649C1610649016275
:101630000649016170BD0000EFBEADDE81150000FE
:10164000291500004D150000731500005B15000002
:10165000FFF70CBF10B500240BE031492000C0B2E9
:1016600051F820002200D2B251F82210096A8847AE
:10167000641C2000C0B20528EFDB2A4800F070F897
:1016800010BD10B52848FFF7D3FD0400FFF702FE98
:10169000FFF754FE220002210120FFF716FE10BDC5
:1016A00010B512E01E492000C0B251F820002200FF
:1016B000D2B251F8221049698847641C2000C0B298
:1016C0000528EFDB174800F041F80024F6E738B5AD
:1016D00000F031F8FFF7D5FF002417E021000020CB
:1016E000FFF73CFE0E4D826841680068FFF78CFFF3
:1016F00045F8240055F824000090002300220B49EF
:10170000012055F82450AD69A847641C052CE5DB81
:1017100003210748FFF77FFC0120FFF7F1FDFEE7FB
:101720006CA60020F000002000E1F5055516000031
:10173000A1160000FEE780B5FFF742FC0021024839
:10174000FFF769FC01BD00003517000010B504006B
:10175000FFF7F8FD2000FFF7B2FCFFF7EFFD10BD2B
:1017600010B50400FFF7EEFD2000FFF7B4FCFFF713
:10177000E5FD10BD72B6EFF3148040F0010080F378
:1017800014882DE9F00F0C480168C1F808D00B4807
:101790000168D1F808D0084808490A680260BDE825
:1017A000F00F6FF0060EEFF3148020F0010080F3CD
:1017B000148862B67047000088A6002094A6002016
:1017C00030B4002512E050F8042BD30744BF4A443C
:1017D000521E091F042942F8045BFAD213468C07F3
:1017E00044BF15809B1CC90748BF1D7050F8041BDF
:1017F0000029E8D130BC704700F016F8002801D06D
:1018000000F014F8064807490A6810448546AFF30B
:1018100000800020AFF30080FFF759FF00F01AF8B6
:10182000D0910020EC0000200120704710B507493E
:1018300079441831064C7C44163404E00A68081DCB
:10184000114488470146A142F8D110BD5000000064
:101850006C00000000F000B80746384600F002F8BF
:10186000FBE7000080B5AFF30080024A11001820AA
:10187000ABBEFBE7260002004EF68851CEF2000117
:10188000086840F470000860BFF34F8FBFF36F8F9C
:101890004FF00170E1EE100A7047000025FFFFFFD6
:1018A000A4A50000F80000200000000057F6FFFF8C
:1018B00048000000E20000000000002080B504485D
:1018C000016851F47001016000F008F801BD0000EA
:1018D00088ED00E0FEE7FEE7FEE700000548014670
:1018E00003B4684680F30988AFF30080FFF7C4FFB4
:1018F000FFF782FFA5EDF5FE1008000800F000409C
:101900000040010001510C92020C92040C92080C50
:1019100012100C22010C42503C610C92020C9204F9
:101920000C92080C213C220F0C3370063C610C9287
:10193000020C213C320D304124610C212422090C7F
:10194000421018610C21181306180C1320011820DE
:10195000050D0001040D00041022001012091010E2
:09196000010900187931E81101B8
:04000005000018DD02
:00000001FF
