:100000007CA80020051400001D1400001F1400002F
:100010002114000021140000211400000000000041
:10002000000000000000000000000000211400009B
:100030002114000000000000BD1200002114000087
:1000400021140000211400002114000021140000DC
:1000500021140000211400002114000021140000CC
:1000600021140000211400002114000021140000BC
:1000700021140000211400002114000021140000AC
:10008000211400002114000021140000211400009C
:10009000211400002114000021140000211400008C
:1000A000211400002114000021140000211400007C
:1000B000211400002114000021140000211400006C
:1000C000211400002114000021140000211400005C
:1000D000211400002114000021140000211400004C
:1000E000211400002114000021140000211400003C
:1000F000211400002114000021140000211400002C
:10010000211400002114000021140000211400001B
:10011000211400002114000021140000211400000B
:1001200021140000211400002114000021140000FB
:1001300021140000211400002114000021140000EB
:1001400021140000211400002114000021140000DB
:100150000000000000000000211400002114000035
:1001600021140000211400000000000021140000F0
:1001700021140000211400002114000021140000AB
:10018000211400002114000021140000211400009B
:10019000211400002114000021140000211400008B
:1001A000211400002114000021140000211400007B
:1001B000211400002114000021140000211400006B
:1001C000211400002114000021140000211400005B
:1001D000211400002114000021140000211400004B
:1001E000211400002114000021140000211400003B
:1001F000211400002114000021140000211400002B
:1002000000210FF2B44252F83130834203D302EBA3
:10021000C10040687047491C0629F4D3002070478C
:10022000C0F30721DFF84C2203E0C0F30721DFF819
:10023000482200065118800D40EA411040F08440E9
:10024000006800B10120C0B27047C0F30721DFF899
:100250002C2200065118800D40EA411040F08440E5
:100260000121016070472DE9F84FDFF81422DFF813
:10027000FC31894611681940DFF8F43199424CD0BD
:1002800000F03803102BC0F384154FF4004ADFF858
:10029000F81104D188464FF0000B15252EE0302BC5
:1002A00004D147F230584FF4001B27E0382B03D11C
:1002B000D0464FF4800B21E010F0380F1BD1A5F190
:1002C0000903122B29D20FF2D41353F82580D36FD0
:1002D00023F01C03072DA8BF43F01003D3674FF092
:1002E0004C7B4FF40023146DE40502D45B1EFAD15D
:1002F00013E01BB911E04FF00008C34610F4605F33
:10030000DFF88841DFF87C6140F0818010F0380F21
:100310001CBF00F03801102901D00020A3E0C0F379
:1003200002600090093DDFF86801FFF769FF306166
:10033000D8233068DFF85C11084040F0004030609E
:1003400000990FF2A43050F821000FF2BC1148447C
:10035000401EB0FBF9F730684BEA000030600C201B
:10036000009A684303FB021142187B1E52686260C8
:10037000626842EA032262604058216801F4000189
:1003800008432060206822686168636803F01F03E7
:10039000C0F389205B1CB8FBF3F34709920507FB08
:1003A00003F5920D6D09A0EB471002FB0352584371
:1003B000C1F3042102EB9020491CB0FBF1F04FEA9D
:1003C00050094846FFF71CFF30612068000204D541
:1003D000306840F08040306003E0206840F4000066
:1003E0002060A068C00704D4AAF1010ABAF1010F85
:1003F000F7DABAF1000F07D030684BEA000040F09E
:10040000104040F0010028E04FF0000926E00846C7
:10041000FFF7F6FE3061DFF88010206820F400005E
:1004200020603068084040F000403060B9F1000FB3
:1004300008BF002706D0B8FBF9F707B17F1E781C6C
:10044000B8FBF0F94846FFF7DBFE3061306840EA60
:1004500087204BEA000040F000403060306820F414
:10046000700030604846BDE8F28F00000000FF7069
:100470000000051000E30F4000EA0F4000E60F40C7
:1004800000E00F40B0E00F400024F40060E10F40B6
:1004900040787D0100FC0FE0FF0300EF40420F00B9
:1004A00000201C0080841E0000802500999E3600DC
:1004B0000040380000093D0000803E0000004B0075
:1004C000404B4C0000204E00808D5B0000C05D0062
:1004D0000080700000127A0000007D008096980075
:1004E000001BB7000080BB00C0E8CE00647ADA00D1
:1004F0000024F4000000FA0080A81201002D310150
:1005000000366E0140787D014000000000000000D0
:10051000000100003E000800000000000001000093
:10052000A00000000200000000010000345401009F
:1005300000000000000100002B7006000000000019
:100540000001000028000000000000000001000081
:100550002700010000000000000100002000000052
:100560000000000000010000500000000200000038
:10057000000100001AAC00000000000000010000B3
:100580001794090000000000000100001698050003
:100590000000000000010000140000000000000046
:1005A00000010000138008000000000000010000AE
:1005B000A000000008000000000100001000000082
:1005C0000000000000010000280000000200000000
:1005D00000010000400000000400000000010000D5
:1005E0006000000000000000000100005D000C0041
:1005F00000000000000100005000000000000000AA
:10060000000100004E000200000000000001000098
:1006100041AC010000000000000100003C000000AF
:1006200000000000000100003A8009000000000006
:100630000001000030000000000000000001000088
:100640002800000000000000000100002700010059
:100650000000000000010000236006000000000010
:1006600000010000216008000000000000010000FF
:100670001E00000000000000000100001DC004007A
:100680000000000000010000500000000200000017
:100690000001000018000000000000000001000040
:1006A00014000000000000000001000060000000D5
:1006B00004000000000100000024F40030003000BD
:1006C000005A62029100910000879303D200D20089
:1006D00000B4C4041301130100E1F50554015401F1
:1006E000000E27079501950100688909001C4E0E30
:1006F00010B504002000FFF793FD002810D0200063
:10070000FFF793FD002801D001200AE02000FFF749
:100710009CFD2000FFF789FD0028FAD0012000E0B1
:10072000002010BD70B5049E059DC0B2002800F0E9
:100730007F801000C0B200287AD1C9B200290FD042
:1007400002291DD014D304292AD021D3062937D059
:100750002ED3082944D03BD30A2951D048D396E060
:100760004FF410714FF46050FFF77DFD04008EE0F0
:100770004FF430714FF46050FFF775FD040086E0D0
:100780004FF460714FF46050FFF76DFD04007EE0A0
:100790004FF480614FF46050FFF765FD040076E090
:1007A0004FF488614FF46050FFF75DFD04006EE088
:1007B0004FF4A8614FF46050FFF755FD040066E068
:1007C0004FF4B8614FF46050FFF74DFD04005EE058
:1007D0004FF4C0614FF46050FFF745FD040056E050
:1007E0004FF4C8614FF46050FFF73DFD04004EE048
:1007F0004FF4D0614FF46050FFF735FD040046E040
:10080000DBB2002B12D0F6B2002E08D0012E0ED192
:1008100029005FF07040FFF726FD040007E0290083
:100820005FF07140FFF71FFD040000E000242EE0A0
:10083000D2B2012A04D02AD3032A23D01BD326E024
:10084000DBB2002B10D0F6B2002E07D0012E11D152
:1008500029002848FFF707FD04000BE0290026487F
:10086000FFF701FD040005E0290043F61000FFF743
:10087000FAFC04000BE0290043F63000FFF7F3FC1C
:10088000040004E029001D48FFF7EDFC04002000EF
:1008900070BD80B500F088F801BD80B500F088F823
:1008A00001BD000080B500EE100A00EE901AB8EE0F
:1008B000400A9FED0E1A80EE010AF8EE600A20EE63
:1008C000200AB5EE400AF1EE10FA06D0DFED080A74
:1008D000B4EE600AF1EE10FA00DBFEE7BCEEC00AEF
:1008E00010EE100A00F029F901BD000000007A4462
:1008F0000100804B100000F0100000F1383800803B
:1009000080B51000C9B2002907D000F005F9002118
:100910000F2000F067F800F00AF900F0F7F801BDC9
:1009200080B50E2000F070F801BDF0B402461068EA
:1009300095681318506803EB5004C00748BF4D4436
:10094000A3422DD013F8016B16F0030004BF13F877
:10095000010BC01C31090F2907D113F8011B0F31FE
:1009600003E013F8017B05F8017B401EF9D1002953
:10097000E6D013F8010BC6F38106032E08BF13F867
:10098000016B00EB0620404228440026B71E8F4230
:100990001EBF10F8017B05F8017B761CF6D1CFE76E
:1009A000F0BC02F10C00704780B500F0D3F802E013
:1009B00080B500F0CBF800B10120C0B202BDF0B5A7
:1009C000234C244A2568954209D02568002655F80D
:1009D000267042F82670761C9B2EF8D3226042F8CF
:1009E0002010F0BD10B50FF27402830852F82320D6
:1009F000136800F00300C000FF248440A34301FA01
:100A000000F01843106010BD0228134903D1086894
:100A100040F000400AE00E2803D1086840F0805002
:100A200004E00F2804D1086840F080600860704737
:100A300010280CD3A0F11002012102F01F029140F6
:100A40000FF2B4021038400952F8200001607047DC
:100A500008ED00E000A4002004ED00E0000000002C
:100A600018ED00E01CED00E020ED00E000E400E007
:100A700004E400E008E400E00CE400E010E400E03E
:100A800014E400E018E400E01CE400E020E400E0EE
:100A900024E400E028E400E02CE400E030E400E09E
:100AA00034E400E038E400E03CE400E040E400E04E
:100AB00044E400E048E400E04CE400E050E400E0FE
:100AC00054E400E058E400E05CE400E060E400E0AE
:100AD00064E400E068E400E06CE400E070E400E05E
:100AE00074E400E078E400E07CE400E080E400E00E
:100AF00084E400E088E400E000E200E004E200E0DA
:100B000008E200E00CE200E010E200E00D480168BD
:100B100041F005010160704780B501460F20FFF7E5
:100B20004EFF0848016841F00201016001BD05481F
:100B3000016841F00201016070470349401E0860EE
:100B40007047000010E000E014E000E0EFF31080D8
:100B500072B67047EFF3108062B6704730B5CB4382
:100B600000F58064D50725684CBF0D431D40256006
:100B700000F58460920747BF02681143016819407D
:100B8000016030BD2DE9F043DFF89891DFF89881DE
:100B9000D9F80040DFF8945108EA0404AC421FD0B1
:100BA0004FF0000C00F6C47E012404FA0CF631422A
:100BB00011D04FEA4C04DEF800600327A740BE4383
:100BC000CEF80060C2F34117DEF8006007FA04F4C3
:100BD0003443CEF800400CF1010CBCF1080FE3DB0C
:100BE000CC4300F5A066D70737684CBF41EA070E33
:100BF00004EA070EC6F800E000F2045C9607DCF891
:100C000000604CBF41EA060E04EA060E00F5A1663C
:100C1000CCF800E0570737684CBF41EA070E04EAFA
:100C2000070EC6F800E000F5A366170737684CBF4B
:100C300041EA070E04EA070EC6F800E0D9F80060A2
:100C400008EA0606AE4209D000F23C5CD206DCF8A7
:100C500000204CBF0A432240CCF8002000F20C5286
:100C6000DE0716684CBF41EA060C04EA060CC2F81F
:100C700000C000F5A2629E0716684CBF41EA060C50
:100C800004EA060CC2F800C000F214525E071668AF
:100C90004CBF41EA060C04EA060CC2F800C000F2A0
:100CA0001C521E0716684CBF41EA060C04EA060CEB
:100CB000C2F800C0D9F8002008EA0202AA4210D007
:100CC00000F244529D0515684CBF0D432540156048
:100CD00000F5A86213F4407F156814BF0D4325404A
:100CE000156000F5A560002B07BF0268114301687D
:100CF00021400160BDE8F08340F82120704738B5FD
:100D000004460D46082303E038B504460D46092382
:100D10000122FFF737FF29462046BDE8384001226F
:100D20001CE7000000E00F400000FF70000005100D
:100D300010B4002112E041F21003484A0800C0B28A
:100D4000584310440C00E4B24460002404730C00C7
:100D5000E4B25C4322441A440260491C0800C0B259
:100D60000928E8DB3D48002148F2800281503C49D7
:100D7000086000203B4908603B48002101733B4963
:100D8000086010BC704770B505000E00344800F0D4
:100D900075F80400002C02D15FF0FF302FE0012035
:100DA000207366735FF0807041F20C01605041F275
:100DB00008002550032009E00100C9B2494204EBB4
:100DC000810141F210022A4B8B50401C0100C9B234
:100DD0000929F1DB092007E02649424204EB82029F
:100DE00041F21003D150401CB0F5806FF4D314F5DC
:100DF0007D60A06021001B4800F04AF8606870BD6B
:100E000038B51A4C2068007B012803D121681548A9
:100E100000F03EF8184D134800F08BF82860286861
:100E20002168884201D0012000E0002032BD80B559
:100E30000E4902220B681A730968001D00F028F899
:100E400000F020F901BD80B5001D00F072F801210D
:100E500001730100034800F01BF801BDF8000020F9
:100E600070A6002074A60020889100206CA60020A7
:100E7000AFEC0D00EFBEADDE78A6002001000868E3
:100E8000002801D1002002E00A6812680A60704759
:100E900002001068002804D110680860116000206A
:100EA00014E01068407B4B7B984204D210680860C5
:100EB000116000200AE0487B13685B7B984207D3EF
:100EC0001068407B4B7B984222D00120704712680B
:100ED000487B13681B685B7B984203D210680068EC
:100EE0000028F4D110680068407B4B7B984207D102
:100EF00000E0126810680068407B4B7B9842F8D095
:100F0000106800680860106801600020DEE7126861
:100F100010680068407B4B7B984203D110680068E2
:100F20000028F4D110680068086010680160002093
:100F3000CCE701000868002801D1002002E00A681F
:100F400012680A607047000080B5FFF7A6FCFFF743
:100F500057FF002801D0FFF7E3FCFFF79AFC01BD23
:100F6000E0B53348019001200090012301220B21BC
:100F70000020FFF7D7FB002800D1FEE70EBD38B5F3
:100F800004002100002000F081F80500052C06D2A5
:100F90002868FFF7ADFB0028FAD0012000E0002010
:100FA00032BD38B504002100032000F06FF80500C1
:100FB000062C06D22868FFF79BFB0028FAD00120F8
:100FC00000E0002032BD10B5002403E02000FFF750
:100FD000D6FF641C052CF9DB002403E02000FFF79A
:100FE000E0FF641C062CF9DB002403E0200000F085
:100FF0002EF8641C022CF9DB002010BD80B50B001C
:101000001100C0B2002808D01800FFF74BFC094AB5
:1010100001210120FFF774FC07E01800FFF742FCF4
:10102000002200210120FFF76BFC002002BD000020
:101030000024F400490F000080B5C0B2002802D09F
:10104000FFF727FC01E0FFF728FC002002BD38B5C0
:1010500004002100052000F019F80500200000F030
:1010600038F804002868FFF743FB2068FFF740FBCF
:10107000002032BD80B5FFF70CFC01BD80B5FFF745
:101080000CFC01BD80B5FFF74BFC01BD0200D2B2E4
:10109000002A06D0022A10D0032A08D0052A12D02E
:1010A00016E00E4A0C20414302EB010010E00C4A0E
:1010B0000C20414302EB01000AE00A4A0C204143A4
:1010C00002EB010004E0084A0C20414302EB01005E
:1010D00070470649000108447047000000000020E6
:1010E0003C000020780000209C000020CC00002064
:1010F000002100E0491C8142FCDB704710B5FFF77E
:101100002FFF0400FFF75FFF220005210120FFF7FA
:1011100075FF0121002000F06DF80121012000F091
:1011200069F80121022000F065F810BD80B50120AA
:10113000FFF782FF01BD10B50121002000F073F818
:101140000021012000F06FF80021022000F06BF870
:10115000224C200000F092F82148FFF7C9FF200040
:1011600000F09CF8E8E710B50021002000F05BF8E3
:101170000121012000F057F80021022000F053F86F
:10118000164C200000F07AF81648FFF7B1FF200057
:1011900000F084F8E8E780B50021002000F043F873
:1011A0000021012000F03FF80121022000F03BF86F
:1011B000F2E780B500F057F8FFF7A0FF02210A48D8
:1011C000FFF7E1FD02210948FFF7DDFD0221084894
:1011D000FFF7D9FDFFF7AAFFFEE70000F0000020AF
:1011E000A0BB0D00A08601003711000067110000B0
:1011F0009711000010B50C00C0B201000320FFF7EA
:1012000045FFE4B2002C02D0012C06D00AE0816830
:10121000C9B24068FFF778FD04E08168C9B2406850
:10122000FFF76DFD10BD10B50C00C0B2010003202A
:10123000FFF72CFFE4B2002C07D08268D2B281689D
:10124000C9B24068FFF758FD0BE08168002901D161
:10125000012200E00022D2B28168C9B24068FFF7E3
:101260004BFD10BDFEE780B5FFF762FD002102488F
:10127000FFF789FD01BD00006512000010B50400F4
:10128000FFF7FCFE2068401E20602068002802D581
:101290002000FFF7CCFDFFF7EDFE10BD10B50400F8
:1012A000FFF7ECFE2068401C20602068002802D474
:1012B0002000FFF7C8FDFFF7DDFE10BD72B6EFF3AB
:1012C000148040F0010080F314882DE9F00F0C48E1
:1012D0000168C1F808D00B480168D1F808D0084867
:1012E00008490A680260BDE8F00F6FF0060EEFF3E0
:1012F000148020F0010080F3148862B6704700006B
:101300006CA6002078A6002030B4002512E050F82A
:10131000042BD30744BF4A44521E091F042942F834
:10132000045BFAD213468C0744BF15809B1CC90787
:1013300048BF1D7050F8041B0029E8D130BC70472D
:1013400000F016F8002801D000F014F8064807490C
:101350000A6810448546AFF300800020AFF3008098
:10136000FFF727FF00F01AF888910020EC0000201A
:101370000120704710B5074979441831064C7C4468
:10138000163404E00A68081D114488470146A1424A
:10139000F8D110BD500000006C00000000F000B853
:1013A0000746384600F002F8FBE7000080B5AFF3CF
:1013B0000080024A11001820ABBEFBE726000200A5
:1013C0004EF68851CEF20001086840F470000860C3
:1013D000BFF34F8FBFF36F8F4FF00170E1EE100A34
:1013E0007047000025FFFFFF84A50000F8000020E3
:1013F0000000000037F5FFFF48000000E200000099
:101400000000002080B50448016851F470010160BB
:1014100000F008F801BD000088ED00E0FEE7FEE7FF
:10142000FEE700000548014603B4684680F30988DA
:10143000AFF30080FFF7C4FFFFF782FFA5EDF5FED5
:101440001008000800F000400040010001510C921B
:10145000020C92040C92080C12100C22010C425047
:101460003C610C92020C92040C92080C213C220F5D
:101470000C3370063C610C92020C213C320D304161
:1014800024610C212422090C421018610C2118132C
:1014900006180C1320011820050D0001040D00048E
:1014A0001022001012091010010900107931E81102
:0114B000013A
:0400000500001425BE
:00000001FF
