:100000002C120020A1030000B5030000B70300007C
:10001000B9030000B9030000B903000000000000AC
:10002000000000000000000000000000B903000014
:10003000B90300000000000001020000B903000045
:10004000B9030000B9030000B9030000B9030000C0
:10005000B9030000B9030000B9030000B9030000B0
:10006000B9030000B9030000B9030000B9030000A0
:10007000B9030000B9030000B9030000B903000090
:10008000B9030000B9030000B9030000B903000080
:10009000B9030000B9030000B9030000B903000070
:1000A000B9030000B9030000B9030000B903000060
:1000B000B9030000B9030000B9030000B903000050
:1000C000B9030000B9030000B9030000B903000040
:1000D000B9030000B9030000B9030000B903000030
:1000E000B9030000B9030000B9030000B903000020
:1000F000B9030000B9030000B9030000B903000010
:10010000B9030000B9030000B9030000B9030000FF
:10011000B9030000B9030000B9030000B9030000EF
:10012000B9030000B9030000B9030000B9030000DF
:10013000B9030000B9030000B9030000B9030000CF
:10014000B9030000B9030000B9030000B9030000BF
:100150000000000000000000B9030000B903000027
:10016000B9030000B903000000000000B90300005B
:10017000B9030000B9030000B9030000B90300008F
:10018000B9030000B9030000B9030000B90300007F
:10019000B9030000B9030000B9030000B90300006F
:1001A000B9030000B9030000B9030000B90300005F
:1001B000B9030000B9030000B9030000B90300004F
:1001C000B9030000B9030000B9030000B90300003F
:1001D000B9030000B9030000B9030000B90300002F
:1001E000B9030000B9030000B9030000B90300001F
:1001F000B9030000B9030000B9030000B90300000F
:1002000072B6EFF3148040F0010080F314882DE9FA
:10021000F00F0C480168C1F808D00B480168D1F80C
:1002200008D0084808490A680260BDE8F00F6FF07E
:10023000060EEFF3148020F0010080F3148862B6FC
:10024000704700001C1000202810002030B400254A
:1002500012E050F8042BD30744BF4A44521E091F32
:10026000042942F8045BFAD213468C0744BF158078
:100270009B1CC90748BF1D7050F8041B0029E8D11A
:1002800030BC704700F016F8002801D000F014F8D8
:10029000064807490A6810448546AFF300800020ED
:1002A000AFF3008000F01CF800F01FF804000020FD
:1002B000000000200120704710B50749794418312B
:1002C000064C7C44163404E00A68081D1144884733
:1002D0000146A142F8D110BD88000000A80000002E
:1002E00080B500F004F8002002BD00F017B801202E
:1002F00070470EE002684368024408305FEAC37C3E
:1003000044BF4B445B1E52F804CB43F804CB091F97
:10031000F9D150F8041B0029ECD170470746384644
:1003200000F002F8FBE7000080B5AFF30080024A5E
:1003300011001820ABBEFBE7260002004EF68851E4
:10034000CEF20001086840F470000860BFF34F8FE0
:10035000BFF36F8F4FF00170E1EE100A704700009D
:10036000EDFEFFFF28100000040000200000000048
:1003700083FFFFFF04000000440000000000002095
:10038000000000000548014603B4684680F3098870
:10039000AFF30080FFF7D2FFFFF774FFA5EDF5FE86
:1003A0000348016841F470010160FFF7EBBF0000F2
:1003B00088ED00E0FEE7FEE7FEE700001810000011
:04000005000003856F
:00000001FF
