:10000000D4AA0020753600008D3600008F3600001F
:10001000913600009136000091360000000000008B
:100020000000000000000000000000009136000009
:1000300091360000000000004135000091360000BC
:100040009136000091360000913600009136000094
:100050009136000091360000913600009136000084
:100060009136000091360000913600009136000074
:100070009136000091360000913600009136000064
:100080009136000091360000913600009136000054
:100090009136000091360000913600009136000044
:1000A0009136000091360000913600009136000034
:1000B0009136000091360000913600009136000024
:1000C0009136000091360000913600009136000014
:1000D0009136000091360000913600009136000004
:1000E00091360000913600009136000091360000F4
:1000F00091360000913600009136000091360000E4
:1001000091360000913600009136000091360000D3
:1001100091360000913600009136000091360000C3
:1001200091360000913600009136000091360000B3
:1001300091360000913600009136000091360000A3
:100140009136000091360000913600009136000093
:100150000000000000000000913600009136000011
:10016000913600009136000000000000913600003A
:100170009136000091360000913600009136000063
:100180009136000091360000913600009136000053
:100190009136000091360000913600009136000043
:1001A0009136000091360000913600009136000033
:1001B0009136000091360000913600009136000023
:1001C0009136000091360000913600009136000013
:1001D0009136000091360000913600009136000003
:1001E00091360000913600009136000091360000F3
:1001F00091360000913600009136000091360000E3
:1002000040F0200070472DE9F14FB0B092460491C4
:100210000DF142013A9A2B9199464A7000200AE06A
:100220001AF8011B0498309A90470028049000F0B7
:1002300023860D98401C0D909AF8000050B1252897
:10024000EED1002100220791089209910A920B91A8
:100250000C9204E00D9800F011BE41F001011AF873
:10026000010F2028F9D023280CD02B2804D02D28CA
:1002700005D0302809D00BE041F00201EFE741F052
:100280000401ECE741F00801E9E741F01001E6E77D
:100290002A280FD1D9F8002052F8040BC9F8002001
:1002A00000280F9003D540420F9041F004010AF15D
:1002B000010A14E00F92DFF8CC3B0AE00F98984255
:1002C00005DA00EB800402EB4402303A0F920AF1A7
:1002D000010A9AF80020A2F130000A28EED39AF819
:1002E00000002E2803D04FF0FF320E9229E01AF8BA
:1002F000010F2A2809D1D9F8000050F8042BC9F8B9
:1003000000000E920AF1010A1BE02D280CBF0AF131
:10031000010A002000220E92DFF8684B0BE040B982
:100320000E9AA24205DA02EB820503EB4503303B4D
:100330000E930AF1010A9AF80030A3F130020A2A5A
:10034000EDD3ADF840100FF640309AF8001000F0F1
:10035000DDFE08B11AF8010B8DF842009DF842004D
:10036000682805D19AF8000068280CD1622106E0BF
:100370006C2804BF9AF800006C2804D171218DF814
:1003800042100AF1010A12A806901AF801BBBBF14B
:1003900025012CD01C3900F09481091F022940F25C
:1003A0009081133900F09A84093900F08A81891EFE
:1003B00000F02F85491E00F0DC84491E022940F21E
:1003C0008081091F00F0D584491F00F0EF80491E8D
:1003D00000F08484491E00F0D780C91E0CD0891E0D
:1003E00000F07C84C91E00F0798400F01DBD01225C
:1003F0000792252100F015BDD9F8000050F8044BF4
:10040000C9F80000002C059440F0AB802B99487887
:10041000002800F0A1804FF0FF340FF6404000F0BC
:1004200085FE201A40F0288500F00ABD01236A46A7
:1004300002A9304600F0E2FD002840F01D856D1E47
:10044000F4D13096079D12AF75B1309E17F8011B9D
:100450000498B0470028049000F00E850D98401CC9
:100460006D1E0D90F2D130960A9D3021002D8DF831
:1004700000100CDD309E01236A4602A9304600F0D0
:10048000BDFD002840F0F8846D1EF4D13096059F24
:10049000089D75B1309E17F8011B0498B0470028DD
:1004A000049000F0E9840D98401C6D1E0D90F2D16F
:1004B00030960B9D3021002D8DF800100CDD309E04
:1004C00001236A4602A9304600F098FD002840F05A
:1004D000D3846D1EF4D1309605980899099D47186C
:1004E00075B1309E17F8011B0498B047002804909E
:1004F00000F0C2840D98401C6D1E0D90F2D1309614
:100500000C9D3021002D8DF800100CDD309E012354
:100510006A4602A9304600F071FD002840F0AC8424
:100520006D1EF4D130969DF8400041077FF584AEF2
:100530002020002C8DF800007FF77EAE309D012337
:100540006A4602A9284600F059FD002840F094842C
:10055000641EF4D130956FE60FF61C30059000F064
:100560006FBC0E9D002D04D5204600F0FFFD044613
:1005700007E02A46204600F015FE002814BF041BA1
:100580002C46089400F05CBCD9F8001051F8040B1C
:10059000C9F8001020F00004002121F0FF35CDE95A
:1005A000024512AB0593782100F02FBC2B994878B7
:1005B00020B14FF0FF340FF6742030E79DF8420071
:1005C000622860D0682817D06A283FD06C2806D0EF
:1005D000712847D074282CD07A281DD062E0D9F831
:1005E000001051F8040BC9F80010002866D14FF034
:1005F000FF340FF6502012E7D9F8001051F8040B21
:10060000C9F8001020B94FF0FF340FF6382006E784
:100610000D99018000F014BCD9F8001051F8040BBA
:10062000C9F80010002849D14FF0FF340FF614200C
:10063000F5E6D9F8001051F8040BC9F800100028AD
:100640003CD14FF0FF340FF6FC10E8E6D9F800106B
:1006500051F8040BC9F8001080B94FF0FF340FF6C1
:10066000E410DCE6D9F8001051F8040BC9F80010CA
:1006700020B94FF0FF340FF6CC10D0E60D9AD31707
:10068000C0E90023DCE3D9F8001051F8040BC9F8E5
:10069000001020B94FF0FF340FF6A810BFE60D99F7
:1006A0000170CDE3D9F8001051F8040BC9F800101F
:1006B00020B94FF0FF340FF68C10B0E60D990160B1
:1006C000BEE39DF842004C2807BFD9F80010CB1DAF
:1006D000D9F80000C31D23F00703C9F80030D3E99F
:1006E00000010833C9F80030CDE90201C80F02D07B
:1006F00007982D210AE0BDF84000810702D5079830
:100700002B2103E0C00705D50798202112AB19540F
:10071000401C079012A80799DDE9024543184BF0E9
:1007200020006128059321AE0BD00E98002802D539
:1007300006200E9005E001BF4BF020006728012144
:100740000E91DDE902014F007F1517F1010F0DD168
:1007500008030BD0ABF1610203201A2A089002D2E1
:100760000FF618110FE00FF618110CE017F1010F3A
:100770000ED109030CD1ABF1610203201A2A0890B3
:100780001CD30FF604110322184600F037FD57E37F
:10079000DDE902016A4600F085FDCDE902014BF07A
:1007A0002000612811D1059830210170821C05922A
:1007B000BBF1610F0CBF7821582102E00FF6C40194
:1007C000E1E741700798801C0790DDE9020120F005
:1007D000000231F0004308BF002A02D100250024A6
:1007E00045E14BF02008B8F1610F40F095800E987C
:1007F000002847BF21210191401C0190019F7F1CCF
:100800002046294600220023DDE9024500F082FD52
:1008100038BF85F0004500998DF88420091F002F0E
:1008200000910DF1850034DD064620462946002260
:10083000002300F089FD2BD21C2200F09FFD04460E
:100840000D4600F039FEFF1F002F804609DD00F045
:100850004FFE02460B462046294600F011FF044693
:100860000D46F01D0721B8F1000F0CDD491E5EBFDB
:1008700008F00F0200F8012D4FEA2818F3D502E026
:10088000002200F8012D491EFAD5C61D002FCCDC30
:1008900030460DF18501401A01990DF18506054696
:1008A0008842C8BF0D46002D2FD4854206DA0DF1CF
:1008B0008500415D0829A8BF0F2000DA00202946E5
:1008C00021AA0A4400E06D1E12F80139491E834234
:1008D000F9D00F2804D10DF18500425C521C42541E
:1008E000002904D50098001D21AE6D1C0090681EE3
:1008F0000BD431180A783032D3B23A2BA4BF5A4401
:100900003A3A401E01F80129F4D50E98002840F12A
:10091000AD80691E0E91A9E00099DFF8D02647F25C
:100920009750414391FBF2F2009225F00045C2F14D
:100930000702002A04DD2046294600F033FB0BE0C5
:1009400052420020DFF8A81600F02CFB02460B46AE
:100950002046294600F006FF04460D46B8F1660F12
:1009600006BF009F0A3706270E983F18142FC8BFEE
:10097000142730208DF884000DF1850000E030460A
:10098000002F35DD06462046294601F00FF80146C6
:100990000A4606F1080304200A26B2FBF6F606EB27
:1009A000860EA2EB4E02303203F8012C0A22B6FB6F
:1009B000F2F202EB820EA6EB4E063036401E03F832
:1009C000026DE9D1083F002F03F10806D7DD084684
:1009D00000F0FEFF02460B462046294600F050FE7E
:1009E0000022DFF8103601F001F804460D46CAE790
:1009F0000DF18501401A0DF1850604E00099491EAC
:100A0000401E0091761C31783029F7D0B8F1660F7E
:100A100002D10099491C04E0B8F1650F0CBF012117
:100A200000210E9D4D19A842B8BF451E002D1DD4B2
:100A3000854204DA705D3428C8BF392000DC3020DC
:100A40002946721E531800E06D1E13F80149491E15
:100A50008442F9D0392802D1705C401C70540029BE
:100A600004D50098401C16466D1C0090009C28B2CE
:100A70000E9F002802DC01250FF210664BF02000CB
:100A8000662808BF641C15D067280FFA84F841D186
:100A900018F1040F44DBB84542DA9DF84000641CAD
:100AA000010703D428B2B842D8BF074620B23F1A84
:100AB00048BF00270FFA84F8B8F1000F00F3AF80A9
:100AC0000898411C0891302205990A54002F03DC34
:100AD0009DF84000010705D50898411C08912E2279
:100AE00005990A5417EB080FB8BF7C4220B2414267
:100AF000C4192AB20B919442B8BF2546059B0898A9
:100B00002DB209952A463146184400F077FB641B44
:100B10000C94CCE0BBF1610F15D14FF0700B17E0D6
:100B200028B2B84204DA9DF840100A0758BF0746B9
:100B30007F1E48BF0027BBF1670F14BF4FF0450B66
:100B40004FF0650B04E0BBF1410F08BF4FF0500BB5
:100B50000898411C0891002F059916F8012B0A549A
:100B600003DC9DF84000010719D50898411C089145
:100B70002E2205990A54002F11DD6D1E28B28742DE
:100B8000B8BF3D460598089B2AB23146184400F08C
:100B900035FB08982DB228187F1B08900B970598F5
:100BA00008990844B8F1000F80F800B003D42B2254
:100BB0004270821C04E02D2144464170821C644234
:100BC00000212CAB20460AE004460A2094FBF0F0FA
:100BD00000EB8005A4EB450403F8014B491C00B26F
:100BE0000028F1DC012906DC4BF02000652804BF59
:100BF000302002F8010B00292CAB08D1302002F87C
:100C0000010B06E0491E585C303002F8010B002948
:100C1000F8DC059908980844121A099247E028B2AE
:100C200021B288421BDA0598089B2AB23146184443
:100C300000F0E4FA08992DB269180891A8EB0500B4
:100C4000002F0B9003DC9DF84000020705D5059AA4
:100C50002E2050540999491C09910C9727E00598BA
:100C6000089B22B23146184400F0C8FA08982D1BA0
:100C70004044002F089003DC9DF840100A0704D57B
:100C8000411C08912E2205990A5428B28742B8BF08
:100C90003D460598089B2AB206EB0801184400F06F
:100CA000ADFA08982DB228187D1B08900B959DF879
:100CB000400000F01400102840F0C280079A089904
:100CC0000B988A18099982180C988A1882180F981C
:100CD000824280F2B580821A0A92B1E09DF8420009
:100CE000622808D068280ED06A2814D06C281FD03B
:100CF000712810D01CE0D9F8001051F8040BC9F885
:100D00000010C0B21AE0D9F8001051F8040BC9F86D
:100D1000001080B212E0D9F80000C21D22F00702D4
:100D2000C9F80020D2E900010832C9F8002006E025
:100D3000D9F8001051F8040BC9F800100021CDE9D2
:100D400002019DF8400001075AD5DDE90223002B7E
:100D500008BF002A54D04BF02000782850D10798C3
:100D600012A930220A54401C431C079301F800B01A
:100D700046E09DF84200622808D068280ED06A2814
:100D800014D06C281FD0712810D01CE0D9F80010A6
:100D900051F8040BC9F8001040B21AE0D9F800105D
:100DA00051F8040BC9F8001000B212E0D9F80000A5
:100DB000C21D22F00702C9F80020D2E90001083262
:100DC000C9F8002006E0D9F8001051F8040BC9F862
:100DD0000010C117CDE90201002902D507982D2185
:100DE0000AE0BDF84000810702D507982B2103E0F7
:100DF000C00705D50798202112AA1154401C07905E
:100E000012A8079901440591594602A800F040F83C
:100E100016E001200790D9F8000050F8041BC9F82B
:100E200000008DF848100BE001212522BBF1000FD6
:100E300007918DF8482003D0022207928DF849B01F
:100E40000F9A07980A990C9C121A0898521A0B9933
:100E5000121A0998521A121A9DF84000141B4107E1
:100E60003FF5F0AA2020002C8DF800007FF7EAAAB9
:100E7000309E2546FFF7DABA4FF0FF3031B0BDE8BB
:100E8000F08F0000CBCCCC0C686A6C747A4C0000FC
:100E90002DE9FC4707468A463C6950466F2808BF43
:100EA000082505D0FFF7ACF9782814BF0A251025CE
:100EB000D7E900013C2680468946BAF1640F18BF85
:100EC000BAF1690F05D1002903D5D8F1000869EB03
:100ED0004909B9F1000F08BFB8F1000F0CD1386B08
:100EE00050B9082D3AD197F83800010736D530228D
:100EF0003B2684F83B2031E08DF800A0404649466F
:100F00002A46EB1700F048FE3032D0B2761E3A285F
:100F100001960EDAA255404649462A46EB1700F0E4
:100F20003BFE80465FEA010908BFB8F1000F05D11A
:100F300008E09DF800001218513AEBE7F868A11993
:100F40008842DBD3082D09D197F83800010705D571
:100F5000A05D302802D0761E3020A055C6F13C029C
:100F6000BA61A119F960386B824208DA821A3A62D2
:100F70004FF6EF70398F01403987BDE8F3870028BD
:100F80000ED597F8380000F01400102808D17B6BBC
:100F90007969386A5B1A1B1A9A1A002AC8BF3A6222
:100FA000BDE8F3872DE9D04306460F4614464FF0BF
:100FB0000008DFF8449012E0E00707D542464B46B0
:100FC0003046394600F012FD06460F464046494677
:100FD00042464B4600F00AFD641080468946002CCC
:100FE000EAD130463946BDE8D0830000A086010032
:100FF0000000F03F84D7974100002440F8B5054633
:101000000E4617461C4600205CB117F8011BB0685D
:10101000A847B06030B1F06A401CF0620020641E46
:10102000F3D1F2BD4FF0FF30F2BD00007072696E77
:1010300074665F733A20256E20646973616C6C6F0F
:10104000776564007072696E74663A20626164202C
:10105000256E20617267756D656E74007072696EC1
:1010600074665F733A206261642025732061726741
:10107000756D656E74000000000000006E616E000A
:101080004E414E00696E6600494E46003000F0B495
:101090000246106895681318506803EB5004C007A7
:1010A00048BF4D44A3422DD013F8016B16F0030046
:1010B00004BF13F8010BC01C31090F2907D113F825
:1010C000011B0F3103E013F8017B05F8017B401E83
:1010D000F9D10029E6D013F8010BC6F38106032EDF
:1010E00008BF13F8016B00EB06204042284400269D
:1010F000B71E8F421EBF10F8017B05F8017B761CDE
:10110000F6D1CFE7F0BC02F10C007047C9B202780B
:101110008A421AB11CBF10F8012FF9E718BF00204E
:1011200070470268531C03601170704780B500B9A6
:1011300006A005490B681BB122220021984701E057
:1011400000F042FE222002BDC8A80020636F6E732B
:10115000747261696E742068616E646C65723A20A5
:10116000626164206D6573736167650000F101035E
:10117000810704D010F8011B820781B1FAD10268FF
:10118000A2F10131914311F0803104BF50F8042FD6
:10119000F6E709BAB1FA81F100EBD100401CC01AA0
:1011A00070470000C9B2830706D0521E22D310F840
:1011B000013B9942F7D11FE0083A13D302F1040230
:1011C00041EA012141EA014150F8043B121F21BFCD
:1011D0004B40A3F1013C2CEA030C1CF0803FF3D000
:1011E000C9B2001F083210F8013B521E28BF91EA15
:1011F000030FF8D818BF0120401E704762B38B0759
:1012000008D0521E11F8013B00F8013B00F0248089
:101210008B07F6D1830740F0208000BF103A07D338
:1012200030B4B1E83810103AA0E83810F9D230BC28
:10123000530724BFB1E80810A0E8081044BF51F8D4
:10124000043B40F8043BD20724BF31F8022B20F8BE
:10125000022B44BF0B7803707047121F17D35B003B
:1012600009D151F8043B20F8023B1B0C121F20F857
:10127000023BF6D20BE051F8043B00F8013B1B0A9D
:1012800020F8023B1B0C121F00F8013BF3D238BFC1
:10129000121D521E24BF11F8013B00F8013BF8D883
:1012A0007047000010B5144600F002F8226010BD2F
:1012B000C1F30A5343B14A0012F5001F28D2A3F22A
:1012C000FE32A1EB0251704750EA410C20D001F0F0
:1012D000004C31EA0C01B1FA81F204BFB0FA80F39C
:1012E000D2180B3AB2F120032CBF00FA03F191405F
:1012F00041EA0C013EBFC2F1200C20FA0CF3194365
:101300009040524240F2FD33D21A01EB0351704734
:101310000022704741EA030C50EA4C0C52EA0C0CD4
:101320004FF4001C09D307D01CEB410F9CBF1CEBF2
:10133000430F8B4208BF824270471CEB430FFBD820
:10134000994208BF9042704741EA030C50EA4C0CA6
:1013500052EA0C0C4FF4001C09D307D01CEB410FD0
:101360009CBF1CEB430F994208BF904270471CEB97
:10137000410FFBD88B4208BF82427047124254D4BF
:1013800040F2FF7C1CEA11530FD0634531D09B180B
:1013900063453CBF01EB0251704701F0004141EA57
:1013A0000C510020AFF30080704750EA410320D079
:1013B00001F0004C91EA0C011CD0B1FA81F30B3B17
:1013C0009A420DD9D21A994051EA0C01C3F1200C6E
:1013D00020FA0CFC61449840531C40F2FF7CD7E794
:1013E000914041EA0C01C2F1200C20FA0CF31943A0
:1013F00090407047B0FA80F31533202BE0D3202AB9
:10140000EED3203A203B9A4209D9D21A00FA03F1CE
:1014100041EA0C010020531C40F2FF7CB8E700FABF
:1014200002F141EA0C0100207047524240F2FF7C79
:101430001CEA11530DD06345DBD0B2EB030C3CBF6B
:10144000A1EB025170470CF1010221EA035141F472
:10145000801150EA410CCCD001F0004C352A27DC39
:1014600030B481EA0C01B2F1200309DAC2F12003A1
:10147000044601FA03F5D0402843D1409C400CE0DB
:10148000C3F12002450020FA03F418BF44F0010420
:1014900021FA03F091400C43002174F1004550F112
:1014A000000051EB0C01244230BC7FF47BAF70474D
:1014B0006146002076E70000C1F30A5340F21E4265
:1014C000D31A0CDDCA0283F3070342EA505242F0FA
:1014D0000042DA4002EBE17282EAE17070476FEAA3
:1014E000E17203F2E13008B182F000407047000081
:1014F00010F0004160B148BF4042B0FA80F2904025
:10150000D21CC2F5846241EA025202EBD0214005AE
:1015100070470000841A71EB030604D26E40001B72
:10152000B141121973414FF4001C1CEB410F34BF41
:101530007CEB430683E00C0DA4EB1356362E00F330
:101540007C80012E45EAC32341DC43EA525312BF9B
:10155000D20292025B08240545EAC12141EA5051BA
:10156000D2EBC020994125D407D1B0FA80F610FA09
:1015700006F162D00020203608E0B1FA81F6B140D1
:10158000C6F1200220FA02F21143B0404FEAF4748F
:10159000B4EB465434F001064FEA74040AD8D6F589
:1015A0000016760D04F00044F04061FA06F2504057
:1015B000F1404840C00A40EA415021F0004128BFB4
:1015C0005FEA500550F1000044EBD12135E0DB0A21
:1015D00045EAC121C90AB6F120050EDD42EA024200
:1015E000120CC5F1200603FA06F6EB4042EA0605A6
:1015F0006D42984161F100010DE062FA06F5F2409A
:10160000554063FA06FC82EA0C02F3405A406D42F0
:10161000904161EB030111F4801F05D1641E620546
:1016200002D06D004041494121F48011430875F119
:10163000004350F1000041EB045170BC70471CEBBB
:10164000410F15D223F0004352EA43060BD04FEA74
:101650004C0CBCEB410F04D80C0D661E342EB7DDCC
:10166000EBE7801A994150EA410608BF0021E4E700
:1016700008BF1CEB430F28BF6FF00001DDE700003F
:1016800070B491EA030F4FF000457FF543AF6B4014
:10169000841A71EB030603D2001BB1411219734186
:1016A0004FF4001C1CEB410F34BF7CEB430442E0C1
:1016B0000C0DA4EB1356352E4FDC45EAC323DB0A91
:1016C00045EAC121C912B6F120050DDD63FA05F620
:1016D000EB4086EA0305124218BF45F00105C01829
:1016E00051F100010CD213E062FA06F5F2405540C8
:1016F000F3415A40B340F3405A408018594107D350
:1017000049085FEA30005FEA350528BF45F001056A
:1017100001F58011420875F1004250F1000041EBE3
:1017200004514E0016F5001F70BC38BF70470020F2
:10173000090D090570471CEB410F10D252EA430610
:101740000BD0BCEB410F05D80C0DAB43661E342EFD
:10175000B6DD02E0AB438018594170BC704770BCE5
:1017600070470000F0B540F2FF7581EA030C0CF001
:10177000004C15EA11541DBF15EA1357AC42AF4295
:10178000E5E0BC41C1F31301C3F31303801A99418F
:1017900043F4801304D2641E001849418018594153
:1017A000C90241EA5051B1FBF3F603FB1611A2FB4B
:1017B0000675D7EBC020A94102D2761E8018594188
:1017C000C90241EA5051B1FBF3FE03FB1E11A2FB1B
:1017D0000E75D7EBC020A94103D2AEF1010E8018DF
:1017E0005941890241EA9051760546EA8E2EB1FBB5
:1017F000F3F603FB1611A2FB0675D7EB8020A94177
:1018000002D2761E80185941C90241EA50514EEA6F
:10181000060EB1FBF3F603FB1611A2FB0675D7EB20
:10182000C020A94102D2761E80185941C90241EA5E
:101830005051B1FBF3F703FB1711A2FB0735D3EBB4
:10184000C020A94167F100070CBF004247F0010723
:1018500066F3D5274FEA1E31B80814F5806412DD0F
:10186000BD0775F1004250EB0E5051EB045111F5DC
:10187000801F5CBF41EA0C01F0BD4CF07F6141F07C
:10188000E0410020F0BDBD076D0840EA0E5041F474
:101890008011D4F10104B4F120060ADAC4F1200663
:1018A0000200E04001FA06F3E1401843B24015435C
:1018B0000EE0342C13DCC6F1200445EA40056D0827
:1018C00020FA06F2154321FA06F0A1400D4300214B
:1018D00075F1004250F1000051EB0C01F0BD002009
:1018E0005FEA0C01F0BDCFB992185B41B3FA83F700
:1018F00004BFB2FA82F6BF190B3FB7F120062FBF23
:1019000002FA06F3BB40C7F1200622FA06F638BFFA
:101910003343BA401CB1E419641E33E77F4231F00F
:101920000041B1FA81F404BFB0FA80F6A4190B3C6F
:10193000B4F120062FBF00FA06F1A140C4F1200641
:1019400020FA06F638BF3143A0403C1B1AE7AC42F0
:101950001ABF05EA1357AF4212E050EA41061CBF16
:1019600052EA4306BFE750EA4107304661461CBFD2
:1019700041EA0551F0BD52EA430C08BFC143F0BD36
:1019800000204FF4001616EB410F98BF16EB430FE3
:1019900008BF16EB410F24BFC14305E016EB430F10
:1019A0000CBF61464CEA0551F0BD0000400D40F20D
:1019B0001E4C40EAC120BCEB115C40F0004003D457
:1019C0008CF30701C84070476FEAE1707047000070
:1019D00050B1B0FA80F18840C91CC1F58461090595
:1019E00001EBD021400570470146704730B540F209
:1019F000FF7C1CEA11541DBF1CEA13556445654564
:101A00003FE0641981EA030C6FF35F530CF0004C64
:101A100043F48013C90241F0004141EA505EC5021F
:101A20001100A5FB020200284FF00000EEFB012090
:101A30004FF00001E3FB052118BF42F001024018FE
:101A400000214941E3FB0E01A4F580640D0302D29D
:101A500092184041494154F1010470DD450872F18A
:101A6000004250F1000051EB0451A1F5801102D465
:101A700041EA0C0130BD40F2FF7E4CEA0E510020DD
:101A800030BD0CEA1355644518BF654581EA030C67
:101A90000CF0004C41D050EA410E1CBF52EA430EFC
:101AA00002E06146002030BD24422C441BD15FEA95
:101AB000050EF6D0090302BF01460020AEF1140E58
:101AC000B1FA81F5AEEB050401FA05FE0C35C5F15E
:101AD000200100FA05F5C8404EEA000E6FF35F538F
:101AE00043F480139CE733F00043B3FA83F504BF5B
:101AF000B2FA82FE75440B3D641BB5F1200E2FBF78
:101B000002FA0EF3AB40C5F1200E22FA0EFE38BFEA
:101B100043EA0E03AA40641C7CE750EA410E14BF5E
:101B200052EA430E6FF000014FF4001515EB430F1E
:101B30008EBF194615EB410F9DE7B4D830BDD4F1E7
:101B40000104B4F120050FDAC4F12005520828BFC2
:101B500042F0010210FA05FE01FA05F57244E2BFF7
:101B6000E0402843E1400FE0352C9ADCC5F1200429
:101B700052EA400220FA05F218BF42F0010231FA9F
:101B800005F0A1400A43002172F1004250F100002B
:101B900051EB0C0130BD0000BBBBE1B1B2F5803FA1
:101BA00080F07E80022A1ED98C46B1FBF2F102FB46
:101BB00011C31B0443EA1043B3FBF2FC02FB1C33CA
:101BC00080B240EA0343B3FBF2F002FB103240EA7A
:101BD0000C4000237047022A05D98446B0FBF2F07E
:101BE00002FB10C270474AB105D100F0010249085A
:101BF0005FEA3000704700220023704700F0E8B829
:101C00000B000200002100207047904271EB030C92
:101C1000F6D3B3F5803F2FD2F0B5B3FA83F7B1FA1C
:101C200081F4A7F10F0E3D1B5340CEF1200602FABE
:101C30000EF2F3415340B5F10F0746D80F3C2C4448
:101C40004140C4F12006A040F1414140B1FBF3F610
:101C500003FB1611A2FB0645001BA94102D2761E0A
:101C60008018594180EA010221FA0EF362FA0EF25D
:101C700000215A403046F0BD30B4B1FBF3FC03FB09
:101C80001C11A2FB0C45001BA94103D2ACF1010CB5
:101C90008018594130BC02460B466046002170470F
:101CA000B2F1807F65D3F0B5B2FA82F7B1FA81F470
:101CB000C7F10F063D1B22FA06F307F1110EF241A0
:101CC00020355A40B5F10F07B8D94140C4F120067C
:101CD000A040F1414140B1FBF3FC03FB1C11A2FB0E
:101CE0000C45001BA94103D2BCF1010C80185941DD
:101CF0000F2F12D30F3FC90341EA5041B1FBF3F656
:101D000003FB1611A2FB0645D4EBC030A94102D259
:101D1000761E8018594146EACC3C07B34140C7F1D2
:101D20002006B840F1414140B1FBF3F603FB161128
:101D3000A2FB0645001BA94102D2761E801859411C
:101D400080EA010221FA0EF3C7F1200462FA0EF2D2
:101D50000CFA07F05A402CFA04F13043F0BD80EA47
:101D6000010221FA0EF3002162FA0EF260465A4097
:101D7000F0BD8C46B1FBF2F102FB11C31B0243EA3A
:101D80001063B3FBF2FC02FB1C331B024CEA002085
:101D900043EA1063B3FBF2FC02FB1C331B024CEA68
:101DA000002043EA1063B3FBF2FC02FB1C331B026E
:101DB0004CEA002043EA1063B3FBF2FC02FB1C3246
:101DC0004CEA002000237047012000F003B8000017
:101DD0007047000080B5AFF30080024A1100182060
:101DE000ABBEFBE72600020000210FF2B44252F81E
:101DF0003130834203D302EBC10040687047491C75
:101E00000629F4D300207047C0F30721DFF84C22E5
:101E100003E0C0F30721DFF8482200065118800DC7
:101E200040EA411040F08440006800B10120C0B297
:101E30007047C0F30721DFF82C2200065118800DEF
:101E400040EA411040F084400121016070472DE9D3
:101E5000F84FDFF81422DFF8FC3189461168194089
:101E6000DFF8F43199424CD000F03803102BC0F366
:101E700084154FF4004ADFF8F81104D188464FF07A
:101E8000000B15252EE0302B04D147F230584FF4CB
:101E9000001B27E0382B03D1D0464FF4800B21E004
:101EA00010F0380F1BD1A5F10903122B29D20FF224
:101EB000D41353F82580D36F23F01C03072DA8BF3C
:101EC00043F01003D3674FF04C7B4FF40023146DA5
:101ED000E40502D45B1EFAD113E01BB911E04FF008
:101EE0000008C34610F4605FDFF88841DFF87C61CA
:101EF00040F0818010F0380F1CBF00F0380110292D
:101F000001D00020A3E0C0F302600090093DDFF89B
:101F10006801FFF769FF3061D8233068DFF85C1192
:101F2000084040F00040306000990FF2A43050F8B3
:101F300021000FF2BC114844401EB0FBF9F7306895
:101F40004BEA000030600C20009A684303FB02114A
:101F500042187B1E52686260626842EA0322626035
:101F60004058216801F4000108432060206822687D
:101F70006168636803F01F03C0F389205B1CB8FB32
:101F8000F3F34709920507FB03F5920D6D09A0EBEA
:101F9000471002FB03525843C1F3042102EB902087
:101FA000491CB0FBF1F04FEA50094846FFF71CFF0F
:101FB00030612068000204D5306840F08040306015
:101FC00003E0206840F400002060A068C00704D44B
:101FD000AAF1010ABAF1010FF7DABAF1000F07D03E
:101FE00030684BEA000040F0104040F0010028E06B
:101FF0004FF0000926E00846FFF7F6FE3061DFF8F3
:102000008010206820F4000020603068084040F014
:1020100000403060B9F1000F08BF002706D0B8FBC0
:10202000F9F707B17F1E781CB8FBF0F94846FFF7B7
:10203000DBFE3061306840EA87204BEA000040F068
:1020400000403060306820F4700030604846BDE8E1
:10205000F28F00000000FF700000051000E30F4049
:1020600000EA0F4000E60F4000E00F40B0E00F40F4
:102070000024F40060E10F4040787D0100FC0FE097
:10208000FF0300EF40420F0000201C0080841E0070
:1020900000802500999E36000040380000093D0070
:1020A00000803E0000004B00404B4C0000204E00E2
:1020B000808D5B0000C05D000080700000127A001F
:1020C00000007D0080969800001BB7000080BB00D8
:1020D000C0E8CE00647ADA000024F4000000FA00C0
:1020E00080A81201002D310100366E0140787D017B
:1020F0004000000000000000000100003E00080059
:102100000000000000010000A0000000020000002C
:102110000001000034540100000000000001000034
:102120002B700600000000000001000028000000E5
:102130000000000000010000270001000000000076
:10214000000100002000000000000000000100006D
:102150005000000002000000000100001AAC000066
:1021600000000000000100001794090000000000BA
:1021700000010000169805000000000000010000AA
:10218000140000000000000000010000138008009F
:102190000000000000010000A00000000800000096
:1021A000000100001000000000000000000100001D
:1021B00028000000020000000001000040000000B4
:1021C00004000000000100006000000000000000AA
:1021D000000100005D000C00000000000001000094
:1021E0005000000000000000000100004E0002004E
:1021F000000000000001000041AC010000000000F0
:10220000000100003C000000000000000001000090
:102210003A800900000000000001000030000000CA
:102220000000000000010000280000000000000085
:102230000001000027000100000000000001000074
:10224000236006000000000000010000216008007B
:1022500000000000000100001E000000000000005F
:10226000000100001DC0040000000000000100008B
:1022700050000000020000000001000018000000F3
:102280000000000000010000140000000000000039
:1022900000010000600000000400000000010000D8
:1022A0000024F40030003000005A620291009100D6
:1022B00000879303D200D20000B4C40413011301B9
:1022C00000E1F50554015401000E27079501950121
:1022D00000688909001C4E0E30B5CB4300F58064C0
:1022E000D50725684CBF0D431D40256000F584606F
:1022F000920747BF0268114301681940016030BD71
:102300002DE9F043DFF82892DFF82882D9F8004061
:10231000DFF8245208EA0404AC421FD04FF0000C4E
:1023200000F6C47E012404FA0CF6314211D04FEAC3
:102330004C04DEF800600327A740BE43CEF80060DF
:10234000C2F34117DEF8006007FA04F43443CEF814
:1023500000400CF1010CBCF1080FE3DBCC4300F5AD
:10236000A066D70737684CBF41EA070E04EA070E9C
:10237000C6F800E000F2045C9607DCF800604CBF91
:1023800041EA060E04EA060E00F5A166CCF800E06C
:10239000570737684CBF41EA070E04EA070EC6F834
:1023A00000E000F5A366170737684CBF41EA070E47
:1023B00004EA070EC6F800E0D9F8006008EA06064D
:1023C000AE4209D000F23C5CD206DCF800204CBFE3
:1023D0000A432240CCF8002000F20C52DE071668B7
:1023E0004CBF41EA060C04EA060CC2F800C000F536
:1023F000A2629E0716684CBF41EA060C04EA060C6E
:10240000C2F800C000F214525E0716684CBF41EAE1
:10241000060C04EA060CC2F800C000F21C521E07AB
:1024200016684CBF41EA060C04EA060CC2F800C06C
:10243000D9F8002008EA0202AA4210D000F2445261
:102440009D0515684CBF0D432540156000F5A86239
:1024500013F4407F156814BF0D432540156000F547
:10246000A560002B07BF026811430168214001608D
:10247000BDE8F08350F82100704740F821207047F4
:1024800001223DE738B500F027F82946204601B083
:10249000BDE830400823F3E738B504460D4608236D
:1024A00003E038B504460D4609230122FFF728FF53
:1024B00029462046BDE8384001220DE704460D4676
:1024C000022209E738B5FFF7F9FF2946204601B097
:1024D000BDE830400823D3E704460D460022FBE662
:1024E00010B5164B0FF25C021B68C0F30741CB40DE
:1024F000DB0746BF02EBC101496852F8311001F217
:102500002C51020A0B680F24944000F00F00A343E3
:1025100090401843086010BD026811430160704785
:1025200000F5A463064A1A6000F22450F4E70000A4
:1025300000E00F400000FF70000005106CE00F404D
:102540004B434F4C0040004000800540005000408D
:10255000009005400060004000A005400070004071
:1025600000B005400040024000C00540005002405D
:1025700000D005400060024000E0054000700240CD
:1025800000F0054000D00340000006400010064067
:1025900000100640002006400020064000300640A3
:1025A0000030064000400640004006400050064013
:1025B0000050064000600640006006400070064083
:1025C00000700640008006400080064000900640F3
:1025D0000090064010B504002000FFF715FC00280D
:1025E00010D02000FFF715FC002801D001200AE0E0
:1025F0002000FFF71EFC2000FFF70BFC0028FAD09C
:10260000012000E0002010BD70B5049E059DC0B201
:10261000002800F07F801000C0B200287AD1C9B233
:1026200000290FD002291DD014D304292AD021D388
:10263000062937D02ED3082944D03BD30A2951D0BC
:1026400048D396E04FF410714FF46050FFF7FFFB52
:1026500004008EE04FF430714FF46050FFF7F7FB49
:10266000040086E04FF460714FF46050FFF7EFFB19
:1026700004007EE04FF480614FF46050FFF7E7FB09
:10268000040076E04FF488614FF46050FFF7DFFB01
:1026900004006EE04FF4A8614FF46050FFF7D7FBE1
:1026A000040066E04FF4B8614FF46050FFF7CFFBD1
:1026B00004005EE04FF4C0614FF46050FFF7C7FBC9
:1026C000040056E04FF4C8614FF46050FFF7BFFBC1
:1026D00004004EE04FF4D0614FF46050FFF7B7FBB9
:1026E000040046E0DBB2002B12D0F6B2002E08D078
:1026F000012E0ED129005FF07040FFF7A8FB040007
:1027000007E029005FF07140FFF7A1FB040000E043
:1027100000242EE0D2B2012A04D02AD3032A23D0E7
:102720001BD326E0DBB2002B10D0F6B2002E07D070
:10273000012E11D129002848FFF789FB04000BE086
:1027400029002648FFF783FB040005E0290043F633
:102750001000FFF77CFB04000BE0290043F630007B
:10276000FFF775FB040004E029001D48FFF76FFB2D
:102770000400200070BD80B500F04AF801BD80B5AE
:1027800000F04AF801BD000080B500EE100A00EE2E
:10279000901AB8EE400A9FED0E1A80EE010AF8EE8C
:1027A000600A20EE200AB5EE400AF1EE10FA06D0DB
:1027B000DFED080AB4EE600AF1EE10FA00DBFEE786
:1027C000BCEEC00A10EE100A00F0EBF801BD0000EC
:1027D00000007A440100804B100000F0100000F16E
:1027E0003838008080B51000C9B2002907D000F049
:1027F000C7F800210F2000F029F800F0CCF800F015
:10280000B9F801BD80B50E2000F032F801BD00001E
:1028100080B500F0D3F802E080B500F0CBF800B14D
:102820000120C0B202BDF0B5234C244A2568954270
:1028300009D02568002655F8267042F82670761CC7
:102840009B2EF8D3226042F82010F0BD10B50FF295
:102850007402830852F82320136800F00300C000BC
:10286000FF248440A34301FA00F01843106010BD18
:102870000228134903D1086840F000400AE00E28FE
:1028800003D1086840F0805004E00F2804D10868A4
:1028900040F080600860704710280CD3A0F110024F
:1028A000012102F01F0291400FF2B40210384009DA
:1028B00052F820000160704708ED00E000A40020FD
:1028C00004ED00E00000000018ED00E01CED00E069
:1028D00020ED00E000E400E004E400E008E400E0B3
:1028E0000CE400E010E400E014E400E018E400E090
:1028F0001CE400E020E400E024E400E028E400E040
:102900002CE400E030E400E034E400E038E400E0EF
:102910003CE400E040E400E044E400E048E400E09F
:102920004CE400E050E400E054E400E058E400E04F
:102930005CE400E060E400E064E400E068E400E0FF
:102940006CE400E070E400E074E400E078E400E0AF
:102950007CE400E080E400E084E400E088E400E05F
:1029600000E200E004E200E008E200E00CE200E047
:1029700010E200E00D48016841F005010160704778
:1029800080B501460F20FFF74EFF0848016841F06F
:102990000201016001BD0548016841F002010160CA
:1029A00070470349401E08607047000010E000E0D7
:1029B00014E000E0EFF3108072B67047EFF3108080
:1029C00062B6704780B5002000F0E0F8604908600A
:1029D000012000F0DBF85F490860022000F0D6F823
:1029E0005D490860032000F0D1F85C4908600420CC
:1029F00000F0CCF85A49086001BD80B500F0F8F845
:102A00005348006800F010F9012803D1012055490E
:102A1000086002E000205349086001BD80B54C48C1
:102A2000006800F001F9C0B201004F4800F000F961
:102A30004848006800F0F8F8C0B201004B4800F0C8
:102A4000F7F84548006800F0EFF8C0B201004848C8
:102A500000F0EEF84148006800F0E6F8C0B201006E
:102A6000444800F0E5F83E48006800F0DDF8C0B2E8
:102A70000100414800F0DCF834A000F0D9F801BDB5
:102A800010B500F01BF9040000F04BF922000521FD
:102A9000012000F061F923004FF4165200210020BC
:102AA00000F0A2F90121002000F03EFA01210120EE
:102AB00000F03AFA0121022000F036FA10BD80B58C
:102AC000012000F067F901BD80B5FFF796FF0120F6
:102AD00000F0FAFAF9E710B5284C200000F040FBAE
:102AE000FFF79CFF0021002000F037FA200000F0E3
:102AF00047FB642000F0E8FAEEE710B51F4C200019
:102B000000F02EFB002000F0E6F90121002000F08B
:102B100024FA200000F034FB012000F0D5FAEDE7A4
:102B200080B500F012FBFFF7ABFF0321144800F063
:102B30005EFA0221134800F05AFA0421124800F00C
:102B400056FAFFF73FFFFFF7BAFFFEE70A0D000056
:102B5000B0A80020B4A80020B8A80020BCA800207D
:102B6000C0A80020C4A80020B0360000C83600006D
:102B7000E0360000F836000010370000F0000020BA
:102B8000FB2A0000D72A0000C92A000038B504003B
:102B9000102000F005FB05002000C0B205281FDA58
:102BA000AC72022028711D490868002802D1ED602E
:102BB0000D600DE0086802E00A68D2680A600A68E1
:102BC000D2688242F8D10868C068E8600868C560C9
:102BD00000206871002028810020E88010482860CB
:102BE0002200D2B20021012000F000FB280032BDFB
:102BF00010B50A4C206800280DD001212068807A89
:102C000000F029FB07482168897A405C2168086048
:102C10002068C0682060002010BD00009CA8002033
:102C20001E0DB00094A800200068C0B270470000DC
:102C30000EB478B5C0B00500184C68464FF48071EA
:102C400000F038FB45AA2900684600F037FBD4F8AD
:102C50000001401C00F0FF00D4F80411884204D1A8
:102C6000012084F81001002014E000260CE06846E2
:102C7000805DD4F800116054D4F80001401C00F0CD
:102C8000FF00C4F80001761C2800FEF76FFA8642A8
:102C9000EDD3012041B070BC5DF810FB6CA60020A4
:102CA00080B5FFF76CFD00F022FA00F0DDF9002896
:102CB00001D0FFF7A7FDFFF75EFD01BDE0B533488A
:102CC000019001200090012301220B210020FFF739
:102CD0009BFC002800D1FEE70EBD38B504002100A2
:102CE000002000F005FB0500052C06D22868FFF740
:102CF00071FC0028FAD0012000E0002032BD38B578
:102D000004002100032000F0F3FA0500062C06D28F
:102D10002868FFF75FFC0028FAD0012000E00020BF
:102D200032BD10B5002403E02000FFF7D6FF641C7D
:102D3000052CF9DB002403E02000FFF7E0FF641C12
:102D4000062CF9DB002403E0200000F02EF8641CC0
:102D5000022CF9DB002010BD80B50B001100C0B2C1
:102D6000002808D01800FFF70FFD094A01210120B3
:102D7000FFF738FD07E01800FFF706FD00220021ED
:102D80000120FFF72FFD002002BD0000005A620263
:102D9000A12C000080B5C0B2002802D0FFF7EBFCE8
:102DA00001E0FFF7ECFC002002BD38B50400210073
:102DB000052000F09DFA0500200000F0BCFA040098
:102DC0002868FFF707FC2068FFF704FC002032BDED
:102DD00080B5FFF7D0FC01BD80B5FFF7D0FC01BD89
:102DE00080B5FFF70FFD01BD2DE9FC410400150082
:102DF0001E002000C0B2032800DBFEE72000C0B2A6
:102E000000F099FA07005FF000080DE04046C0B2FC
:102E100050FA84F1052000F06BFA69464246D2B2BE
:102E200041F8220018F101084046C0B20228EDDB4B
:102E3000786800F0C2FAB868FFF752FBF868FFF74D
:102E40004FFB00988168019880680143C9B20098DF
:102E50004068FFF737FB60232A003100786800F0F4
:102E600079FA786800F09CFA00210AE02D4A2300E4
:102E7000DBB24FF48A70434302EB0300002242545A
:102E8000491C0429F2D34FF48A7026492200D2B299
:102E900042430A440023C2F800312200D2B2424326
:102EA0000A440023C2F808312200D2B242430A4445
:102EB0000023C2F804312200D2B242430A44002364
:102EC000C2F80C31E4B2444301EB0400002180F865
:102ED0001011BDE8F38110B504002000C0B200F06D
:102EE0002AFA104AE4B24FF48A714C431444D4F8DD
:102EF0000411491C01F0FF01D4F80021521C02F01A
:102F0000FF0291420CD0D4F80411615C406800F0DB
:102F100065FAD4F80401401C00F0FF00C4F8040175
:102F2000012010BD6CA6002010B50C00C0B201003D
:102F3000032000F0DDF9E4B2002C02D0012C06D011
:102F40000AE08168C9B24068FFF7ABFA04E0816823
:102F5000C9B24068FFF7A0FA10BD10B50C00C0B2AE
:102F60000100032000F0C4F9E4B2002C07D082680D
:102F7000D2B28168C9B24068FFF77FFA0BE081687E
:102F8000002901D1012200E00022D2B28168C9B239
:102F90004068FFF772FA10BD10B4002112E041F250
:102FA0001403614A0800C0B2584310440C00E4B254
:102FB0004460002404730C00E4B25C4322441A44CD
:102FC0000260491C0800C0B20928E8DB564800210D
:102FD00048F2A00281505549086000205449086019
:102FE0005448002101735449086010BC704770B503
:102FF00005000E004D4800F0F8F90400002C02D145
:103000005FF0FF302FE00120207366735FF0807067
:1030100041F20C01605041F208002550032009E004
:103020000100C9B2494204EB810141F21002434B55
:103030008B50401C0100C9B20929F1DB092007E0CF
:103040003F49424204EB820241F21003D150401C3E
:10305000B0F5806FF4D314F57D60A0602100344892
:1030600000F0CDF9606870BD38B5334C2068007B46
:10307000012803D121682E4800F0C1F9314D2C48B8
:1030800000F00EFA286028682168884201D00120EB
:1030900000E0002032BD80B5274902220B681A7378
:1030A0000968001D00F0ABF9FFF79AFE01BD80B57D
:1030B000001D00F0F5F9002805D001210173010081
:1030C0001B4800F09CF901BD10B50400FFF784FE19
:1030D0001948022102681173006841F2100144503E
:1030E000FFF776FEFFF7C0FFFFF77AFE10BD10B5C1
:1030F000012416E00C4841F2140101FB04F10144E3
:1031000041F21002885800280AD08858401E885082
:103110008858002804D101200873054800F06FF991
:10312000641C092CE6D310BDF8000020A4A80020E0
:10313000A8A80020AC910020A0A80020AFEC0D00B2
:10314000EFBEADDEACA80020FEE780B5FFF724FFA0
:1031500000210248FFF74BFF01BD0000493100008C
:1031600010B50400FFF738FE2068401E206020687C
:10317000002802D52000FFF78EFFFFF729FE10BDC3
:1031800010B50400FFF728FE2068401C206020686E
:10319000002802D42000FFF78AFFFFF719FE10BDB8
:1031A00070B5C51DED08AFF30080ED00072D98BF89
:1031B00008250D4E34682CB900F07CF900283060E9
:1031C000F7D10CE02068A842F6D36119451B14BF63
:1031D0000D6000213160AFF30080204670BDAFF379
:1031E0000080002070BD0000CCA80020F8B50400CD
:1031F0000D0016003100C9B2002000F079F8070078
:10320000E4B2002C10D0022C24D023D2F6B2052E2A
:1032100009DAB968C9B27868FFF782F9B968C9B242
:103220007868FFF72FF915E0F6B2052E11DAEDB246
:10323000002D07D00A230122B968C9B27868FFF7C8
:103240005FF806E008230122B968C9B27868FFF781
:1032500057F8FFE7F1BD70B504000D002100C9B2B9
:10326000002000F045F80600EDB2002D02D0012D3F
:103270000FD01CE0B168C9B27068FFF7FBF8B16805
:10328000084201D0012000E000200949E4B20855BD
:103290000DE0B168C9B27068FFF7ECF8B168084298
:1032A00001D0012000E000200149E4B2085570BDC2
:1032B00094A80020002200F013B9000037B504469E
:1032C00000250A460194009502AB01A907487844FD
:1032D0001A30FCF798FF019A157000284EBF04467B
:1032E0000198041B204603B030BD00BF37DEFFFF4E
:1032F0000200D2B2002A06D0022A10D0032A08D037
:10330000052A12D016E00E4A0C20414302EB0100C0
:1033100010E00C4A0C20414302EB01000AE00A4A8B
:103320000C20414302EB010004E0084A0C20414319
:1033300002EB010070470649000108447047000095
:10334000000000203C000020780000209C000020AD
:10335000CC000020F8B504460E4617461D4600F086
:103360002CF804F13000B6EB071F016804D241F0DD
:10337000200101607F0802E021F020010160F000DF
:10338000B0FBF7F0401C40088109616200F03F008B
:10339000A062E5620020A0612046BDE8F240FFE7A0
:1033A00000F12C010A6842F010020A6040F201327A
:1033B00050F8301F11430160704781690907FCD440
:1033C00000F12C010A6822F010020A6050F8301F48
:1033D000014A114001607047FEFCFFFF82699206BE
:1033E0005ABF0160012000207047010008680028D2
:1033F00001D1002002E00A6812680A6070470200EA
:103400001068002804D1106808601160002014E0E2
:103410001068407B4B7B984204D2106808601160B2
:1034200000200AE0487B13685B7B984207D3106852
:10343000407B4B7B984222D0012070471268487B2A
:1034400013681B685B7B984203D2106800680028F1
:10345000F4D110680068407B4B7B984207D100E0B4
:10346000126810680068407B4B7B9842F8D0106867
:1034700000680860106801600020DEE712681068CC
:103480000068407B4B7B984203D11068006800289D
:10349000F4D1106800680860106801600020CCE773
:1034A00001000868002801D1002002E00A681268C3
:1034B0000A6070470749086808B10020704706484D
:1034C000C008C00008600549C908C900091A0160A0
:1034D000704700BFD0A80020DFAA0020D8AA012092
:1034E000401810F0030308D0C91A1FD3DB0748BFE8
:1034F00000F8012D28BF20F8022D130030B4144627
:103500001546103928BF20E93C00FAD8490728BFE2
:1035100020E90C0048BF40F8042D890028BF20F89E
:10352000022D48BF00F8012D30BC7047C91818BFE4
:1035300000F8012DCB0728BF00F8012D70470000CF
:1035400072B6EFF3148040F0010080F314882DE987
:10355000F00F0C480168C1F808D00B480168D1F899
:1035600008D0084808490A680260BDE8F00F6FF00B
:10357000060EEFF3148020F0010080F3148862B689
:1035800070470000A0A80020ACA8002030B400259F
:1035900012E050F8042BD30744BF4A44521E091FBF
:1035A000042942F8045BFAD213468C0744BF158005
:1035B0009B1CC90748BF1D7050F8041B0029E8D1A7
:1035C00030BC704700F016F8002801D000F014F865
:1035D000064807490A6810448546AFF3008000207A
:1035E000AFF30080FFF79CFA00F01AF8AC910020CE
:1035F000EC0000200120704710B5074979441831CC
:10360000064C7C44163404E00A68081D11448847BF
:103610000146A142F8D110BD3C0000005800000056
:1036200000F000B807463846FEF7D4FBFBE7000081
:103630004EF68851CEF20001086840F47000086030
:10364000BFF34F8FBFF36F8F4FF00170E1EE100AA1
:103650007047000039FFFFFFDCA70000F8000020E2
:10366000000000002BDAFFFFC0000000E2000000B5
:103670000000002080B50448016851F47001016029
:1036800000F008F801BD000088ED00E0FEE7FEE76D
:10369000FEE700000548014603B4684680F3098848
:1036A000AFF30080FFF7C4FFFFF78CFFA5EDF5FE39
:1036B000207C427574746F6E312053746174653A66
:1036C000202564207C000000207C427574746F6E9D
:1036D000322053746174653A202564207C00000018
:1036E000207C427574746F6E332053746174653A34
:1036F000202564207C000000207C427574746F6E6D
:10370000342053746174653A202564207C000000E5
:10371000207C427574746F6E352053746174653A01
:10372000202564207C0000001008000800F0004004
:103730000040010001510C92020C92040C92080C02
:1037400012100C22010C42503C610C92020C9204AB
:103750000C92080C213C220F0C3370063C610C9239
:10376000020C213C320D304124610C212422090C31
:10377000421018610C21181306180C132001182090
:10378000050D0001040D0004102200101209101094
:09379000010900147931E811016E
:04000005000036952C
:00000001FF
